{
	"data": {
		"bytecode": {
			"linkReferences": {},
			"object": "608060405269021e19e0c9bab240000060075569054b40b1f852bda000006008553480156200002d57600080fd5b506200004e620000426200005460201b60201c565b6200005c60201b60201c565b62000120565b600033905090565b60008060009054906101000a900473ffffffffffffffffffffffffffffffffffffffff169050816000806101000a81548173ffffffffffffffffffffffffffffffffffffffff021916908373ffffffffffffffffffffffffffffffffffffffff1602179055508173ffffffffffffffffffffffffffffffffffffffff168173ffffffffffffffffffffffffffffffffffffffff167f8be0079c531659141344cd1fd0a4f28419497f9722a3daafe3b4186f6b6457e060405160405180910390a35050565b612b9480620001306000396000f3fe608060405234801561001057600080fd5b506004361061014d5760003560e01c80638054a35d116100c3578063b4fee94e1161007c578063b4fee94e14610364578063c437692314610382578063c5b1f381146103a0578063f2fde38b146103bc578063f65a7c14146103d8578063ff1f79bc146103f65761014d565b80638054a35d146102a0578063814ef95b146102be5780638da5cb5b146102da5780639555bd87146102f857806398e5928414610316578063adffa46d146103345761014d565b806359d5d02a1161011557806359d5d02a146101f657806359dd3083146102125780635c9895931461022e5780636498bd781461025e578063715018a61461027a57806376d20bca146102845761014d565b806314f75f88146101525780631e251f1e1461016e57806333ec22581461018a5780633ed6fa32146101a8578063417df1f1146101d8575b600080fd5b61016c60048036038101906101679190611d99565b610412565b005b61018860048036038101906101839190611d99565b6104d2565b005b610192610592565b60405161019f91906124af565b60405180910390f35b6101c260048036038101906101bd9190612015565b610598565b6040516101cf9190612494565b60405180910390f35b6101e06107db565b6040516101ed91906122c3565b60405180910390f35b610210600480360381019061020b9190611df3565b610801565b005b61022c60048036038101906102279190611fbb565b610916565b005b61024860048036038101906102439190611e46565b61099c565b6040516102559190612390565b60405180910390f35b61027860048036038101906102739190611fbb565b6112d2565b005b610282611358565b005b61029e60048036038101906102999190611d99565b6113e0565b005b6102a86114a0565b6040516102b591906122c3565b60405180910390f35b6102d860048036038101906102d39190611f61565b6114c6565b005b6102e2611562565b6040516102ef91906122c3565b60405180910390f35b61030061158b565b60405161030d91906124af565b60405180910390f35b61031e611591565b60405161032b9190612494565b60405180910390f35b61034e60048036038101906103499190611ebc565b6115a5565b60405161035b919061236e565b60405180910390f35b61036c6116d9565b60405161037991906122c3565b60405180910390f35b61038a6116ff565b60405161039791906122c3565b60405180910390f35b6103ba60048036038101906103b59190611d99565b611725565b005b6103d660048036038101906103d19190611d99565b6117e5565b005b6103e06118dd565b6040516103ed91906122c3565b60405180910390f35b610410600480360381019061040b9190611d99565b611903565b005b61041a6119c3565b73ffffffffffffffffffffffffffffffffffffffff16610438611562565b73ffffffffffffffffffffffffffffffffffffffff161461048e576040517f08c379a000000000000000000000000000000000000000000000000000000000815260040161048590612414565b60405180910390fd5b80600260006101000a81548173ffffffffffffffffffffffffffffffffffffffff021916908373ffffffffffffffffffffffffffffffffffffffff16021790555050565b6104da6119c3565b73ffffffffffffffffffffffffffffffffffffffff166104f8611562565b73ffffffffffffffffffffffffffffffffffffffff161461054e576040517f08c379a000000000000000000000000000000000000000000000000000000000815260040161054590612414565b60405180910390fd5b80600360006101000a81548173ffffffffffffffffffffffffffffffffffffffff021916908373ffffffffffffffffffffffffffffffffffffffff16021790555050565b60085481565b600060018361ffff1614156105cb578161ffff16612710856105ba919061285d565b6105c4919061285d565b90506107d4565b60028361ffff16141561060b578161ffff166127106305f5e100866105f0919061285d565b6105fa9190612608565b610604919061285d565b90506107d4565b60038361ffff16141561064e578161ffff166305f5e10064e8d4a5100086610633919061285d565b61063d9190612608565b610647919061285d565b90506107d4565b60048361ffff161415610694578161ffff1664e8d4a51000662386f26fc1000086610679919061285d565b6106839190612608565b61068d919061285d565b90506107d4565b60058361ffff1614156106de578161ffff16662386f26fc1000068056bc75e2d63100000866106c3919061285d565b6106cd9190612608565b6106d7919061285d565b90506107d4565b60068361ffff16141561072b578161ffff1668056bc75e2d6310000069d3c21bcecceda100000086610710919061285d565b61071a9190612608565b610724919061285d565b90506107d4565b60078361ffff16141561077b578161ffff1669d3c21bcecceda10000006b204fce5e3e2502611000000086610760919061285d565b61076a9190612608565b610774919061285d565b90506107d4565b60088361ffff1614156107cf578161ffff166b204fce5e3e250261100000006d04ee2d6d415b85acef8100000000866107b4919061285d565b6107be9190612608565b6107c8919061285d565b90506107d4565b600090505b9392505050565b600160009054906101000a900473ffffffffffffffffffffffffffffffffffffffff1681565b6108096119c3565b73ffffffffffffffffffffffffffffffffffffffff16610827611562565b73ffffffffffffffffffffffffffffffffffffffff161461087d576040517f08c379a000000000000000000000000000000000000000000000000000000000815260040161087490612414565b60405180910390fd5b60008390508073ffffffffffffffffffffffffffffffffffffffff1663a9059cbb84846040518363ffffffff1660e01b81526004016108bd929190612345565b602060405180830381600087803b1580156108d757600080fd5b505af11580156108eb573d6000803e3d6000fd5b505050506040513d601f19601f8201168201806040525081019061090f9190611e8f565b5050505050565b61091e6119c3565b73ffffffffffffffffffffffffffffffffffffffff1661093c611562565b73ffffffffffffffffffffffffffffffffffffffff1614610992576040517f08c379a000000000000000000000000000000000000000000000000000000000815260040161098990612414565b60405180910390fd5b8060088190555050565b600080600260009054906101000a900473ffffffffffffffffffffffffffffffffffffffff1673ffffffffffffffffffffffffffffffffffffffff166370a08231336040518263ffffffff1660e01b81526004016109fa91906122c3565b60206040518083038186803b158015610a1257600080fd5b505afa158015610a26573d6000803e3d6000fd5b505050506040513d601f19601f82011682018060405250810190610a4a9190611fe8565b90508251600754610a5b9190612675565b811015610a9d576040517f08c379a0000000000000000000000000000000000000000000000000000000008152600401610a94906123d4565b60405180910390fd5b6000600360009054906101000a900473ffffffffffffffffffffffffffffffffffffffff1673ffffffffffffffffffffffffffffffffffffffff166370a08231336040518263ffffffff1660e01b8152600401610afa91906122c3565b60206040518083038186803b158015610b1257600080fd5b505afa158015610b26573d6000803e3d6000fd5b505050506040513d601f19601f82011682018060405250810190610b4a9190611fe8565b90508351600854610b5b9190612675565b811015610b9d576040517f08c379a0000000000000000000000000000000000000000000000000000000008152600401610b9490612474565b60405180910390fd5b606060005b85518110156112c8573373ffffffffffffffffffffffffffffffffffffffff16600160009054906101000a900473ffffffffffffffffffffffffffffffffffffffff1673ffffffffffffffffffffffffffffffffffffffff16636352211e888481518110610c1357610c126128ec565b5b60200260200101516040518263ffffffff1660e01b8152600401610c3791906124af565b60206040518083038186803b158015610c4f57600080fd5b505afa158015610c63573d6000803e3d6000fd5b505050506040513d601f19601f82011682018060405250810190610c879190611dc6565b73ffffffffffffffffffffffffffffffffffffffff1614610cdd576040517f08c379a0000000000000000000000000000000000000000000000000000000008152600401610cd490612434565b60405180910390fd5b6000610d02878381518110610cf557610cf46128ec565b5b60200260200101516119cb565b905060008214610d61578080519060200120838051906020012014610d5c576040517f08c379a0000000000000000000000000000000000000000000000000000000008152600401610d5390612454565b60405180910390fd5b610d65565b8092505b600160009054906101000a900473ffffffffffffffffffffffffffffffffffffffff1673ffffffffffffffffffffffffffffffffffffffff166323b872dd33308a8681518110610db857610db76128ec565b5b60200260200101516040518463ffffffff1660e01b8152600401610dde939291906122de565b600060405180830381600087803b158015610df857600080fd5b505af1158015610e0c573d6000803e3d6000fd5b5050505060018751610e1e91906126cf565b8214156112b457600260009054906101000a900473ffffffffffffffffffffffffffffffffffffffff1673ffffffffffffffffffffffffffffffffffffffff166323b872dd33308a51600754610e749190612675565b6040518463ffffffff1660e01b8152600401610e92939291906122de565b602060405180830381600087803b158015610eac57600080fd5b505af1158015610ec0573d6000803e3d6000fd5b505050506040513d601f19601f82011682018060405250810190610ee49190611e8f565b50600360009054906101000a900473ffffffffffffffffffffffffffffffffffffffff1673ffffffffffffffffffffffffffffffffffffffff166323b872dd33308a51600854610f349190612675565b6040518463ffffffff1660e01b8152600401610f52939291906122de565b602060405180830381600087803b158015610f6c57600080fd5b505af1158015610f80573d6000803e3d6000fd5b505050506040513d601f19601f82011682018060405250810190610fa49190611e8f565b506000600560149054906101000a900461ffff168851610fc49190612639565b905060648161ffff161061107e576000610fdd85611aa3565b9050600160009054906101000a900473ffffffffffffffffffffffffffffffffffffffff1673ffffffffffffffffffffffffffffffffffffffff1663d204c45e33836040518363ffffffff1660e01b815260040161103c929190612315565b600060405180830381600087803b15801561105657600080fd5b505af115801561106a573d6000803e3d6000fd5b5050505060019750505050505050506112cd565b600460009054906101000a900473ffffffffffffffffffffffffffffffffffffffff1673ffffffffffffffffffffffffffffffffffffffff16634b1d0eae6040518163ffffffff1660e01b8152600401602060405180830381600087803b1580156110e857600080fd5b505af11580156110fc573d6000803e3d6000fd5b505050506040513d601f19601f820116820180604052508101906111209190611fe8565b6006819055506000600560009054906101000a900473ffffffffffffffffffffffffffffffffffffffff1673ffffffffffffffffffffffffffffffffffffffff1663cafb8c77600561117860065460056103e8610598565b6040518363ffffffff1660e01b81526004016111959291906123ab565b60206040518083038186803b1580156111ad57600080fd5b505afa1580156111c1573d6000803e3d6000fd5b505050506040513d601f19601f820116820180604052508101906111e59190611f8e565b90508061ffff168261ffff1611156112a457600061120286611aa3565b9050600160009054906101000a900473ffffffffffffffffffffffffffffffffffffffff1673ffffffffffffffffffffffffffffffffffffffff1663d204c45e33836040518363ffffffff1660e01b8152600401611261929190612315565b600060405180830381600087803b15801561127b57600080fd5b505af115801561128f573d6000803e3d6000fd5b505050506001985050505050505050506112cd565b60009750505050505050506112cd565b5080806112c09061280a565b915050610ba2565b505050505b919050565b6112da6119c3565b73ffffffffffffffffffffffffffffffffffffffff166112f8611562565b73ffffffffffffffffffffffffffffffffffffffff161461134e576040517f08c379a000000000000000000000000000000000000000000000000000000000815260040161134590612414565b60405180910390fd5b8060078190555050565b6113606119c3565b73ffffffffffffffffffffffffffffffffffffffff1661137e611562565b73ffffffffffffffffffffffffffffffffffffffff16146113d4576040517f08c379a00000000000000000000000000000000000000000000000000000000081526004016113cb90612414565b60405180910390fd5b6113de6000611aaa565b565b6113e86119c3565b73ffffffffffffffffffffffffffffffffffffffff16611406611562565b73ffffffffffffffffffffffffffffffffffffffff161461145c576040517f08c379a000000000000000000000000000000000000000000000000000000000815260040161145390612414565b60405180910390fd5b80600460006101000a81548173ffffffffffffffffffffffffffffffffffffffff021916908373ffffffffffffffffffffffffffffffffffffffff16021790555050565b600560009054906101000a900473ffffffffffffffffffffffffffffffffffffffff1681565b6114ce6119c3565b73ffffffffffffffffffffffffffffffffffffffff166114ec611562565b73ffffffffffffffffffffffffffffffffffffffff1614611542576040517f08c379a000000000000000000000000000000000000000000000000000000000815260040161153990612414565b60405180910390fd5b80600560146101000a81548161ffff021916908361ffff16021790555050565b60008060009054906101000a900473ffffffffffffffffffffffffffffffffffffffff16905090565b60075481565b600560149054906101000a900461ffff1681565b60606000600283516115b79190612608565b67ffffffffffffffff8111156115d0576115cf61291b565b5b60405190808252806020026020018201604052801561160357816020015b60608152602001906001900390816115ee5790505b50905060005b600284516116179190612608565b8110156116cf578360028261162c9190612675565b8151811061163d5761163c6128ec565b5b602001015160f81c60f81b8460016002846116589190612675565b61166291906125b2565b81518110611673576116726128ec565b5b602001015160f81c60f81b60405160200161168f929190612297565b6040516020818303038152906040528282815181106116b1576116b06128ec565b5b602002602001018190525080806116c79061280a565b915050611609565b5080915050919050565b600360009054906101000a900473ffffffffffffffffffffffffffffffffffffffff1681565b600260009054906101000a900473ffffffffffffffffffffffffffffffffffffffff1681565b61172d6119c3565b73ffffffffffffffffffffffffffffffffffffffff1661174b611562565b73ffffffffffffffffffffffffffffffffffffffff16146117a1576040517f08c379a000000000000000000000000000000000000000000000000000000000815260040161179890612414565b60405180910390fd5b80600160006101000a81548173ffffffffffffffffffffffffffffffffffffffff021916908373ffffffffffffffffffffffffffffffffffffffff16021790555050565b6117ed6119c3565b73ffffffffffffffffffffffffffffffffffffffff1661180b611562565b73ffffffffffffffffffffffffffffffffffffffff1614611861576040517f08c379a000000000000000000000000000000000000000000000000000000000815260040161185890612414565b60405180910390fd5b600073ffffffffffffffffffffffffffffffffffffffff168173ffffffffffffffffffffffffffffffffffffffff1614156118d1576040517f08c379a00000000000000000000000000000000000000000000000000000000081526004016118c8906123f4565b60405180910390fd5b6118da81611aaa565b50565b600460009054906101000a900473ffffffffffffffffffffffffffffffffffffffff1681565b61190b6119c3565b73ffffffffffffffffffffffffffffffffffffffff16611929611562565b73ffffffffffffffffffffffffffffffffffffffff161461197f576040517f08c379a000000000000000000000000000000000000000000000000000000000815260040161197690612414565b60405180910390fd5b80600560006101000a81548173ffffffffffffffffffffffffffffffffffffffff021916908373ffffffffffffffffffffffffffffffffffffffff16021790555050565b600033905090565b60606119d5611b6e565b600160009054906101000a900473ffffffffffffffffffffffffffffffffffffffff1673ffffffffffffffffffffffffffffffffffffffff1663cc33c875846040518263ffffffff1660e01b8152600401611a3091906124af565b60006040518083038186803b158015611a4857600080fd5b505afa158015611a5c573d6000803e3d6000fd5b505050506040513d6000823e3d601f19601f82011682018060405250810190611a859190611f05565b82600001836020018281525082905250508060000151915050919050565b6060919050565b60008060009054906101000a900473ffffffffffffffffffffffffffffffffffffffff169050816000806101000a81548173ffffffffffffffffffffffffffffffffffffffff021916908373ffffffffffffffffffffffffffffffffffffffff1602179055508173ffffffffffffffffffffffffffffffffffffffff168173ffffffffffffffffffffffffffffffffffffffff167f8be0079c531659141344cd1fd0a4f28419497f9722a3daafe3b4186f6b6457e060405160405180910390a35050565b604051806040016040528060608152602001600081525090565b6000611b9b611b96846124ef565b6124ca565b90508083825260208201905082856020860282011115611bbe57611bbd61294f565b5b60005b85811015611bee5781611bd48882611d6f565b845260208401935060208301925050600181019050611bc1565b5050509392505050565b6000611c0b611c068461251b565b6124ca565b905082815260208101848484011115611c2757611c26612954565b5b611c32848285612797565b509392505050565b6000611c4d611c488461251b565b6124ca565b905082815260208101848484011115611c6957611c68612954565b5b611c748482856127a6565b509392505050565b600081359050611c8b81612b02565b92915050565b600081519050611ca081612b02565b92915050565b600082601f830112611cbb57611cba61294a565b5b8135611ccb848260208601611b88565b91505092915050565b600081519050611ce381612b19565b92915050565b600082601f830112611cfe57611cfd61294a565b5b8135611d0e848260208601611bf8565b91505092915050565b600082601f830112611d2c57611d2b61294a565b5b8151611d3c848260208601611c3a565b91505092915050565b600081359050611d5481612b30565b92915050565b600081519050611d6981612b30565b92915050565b600081359050611d7e81612b47565b92915050565b600081519050611d9381612b47565b92915050565b600060208284031215611daf57611dae61295e565b5b6000611dbd84828501611c7c565b91505092915050565b600060208284031215611ddc57611ddb61295e565b5b6000611dea84828501611c91565b91505092915050565b600080600060608486031215611e0c57611e0b61295e565b5b6000611e1a86828701611c7c565b9350506020611e2b86828701611c7c565b9250506040611e3c86828701611d6f565b9150509250925092565b600060208284031215611e5c57611e5b61295e565b5b600082013567ffffffffffffffff811115611e7a57611e79612959565b5b611e8684828501611ca6565b91505092915050565b600060208284031215611ea557611ea461295e565b5b6000611eb384828501611cd4565b91505092915050565b600060208284031215611ed257611ed161295e565b5b600082013567ffffffffffffffff811115611ef057611eef612959565b5b611efc84828501611ce9565b91505092915050565b60008060408385031215611f1c57611f1b61295e565b5b600083015167ffffffffffffffff811115611f3a57611f39612959565b5b611f4685828601611d17565b9250506020611f5785828601611d84565b9150509250929050565b600060208284031215611f7757611f7661295e565b5b6000611f8584828501611d45565b91505092915050565b600060208284031215611fa457611fa361295e565b5b6000611fb284828501611d5a565b91505092915050565b600060208284031215611fd157611fd061295e565b5b6000611fdf84828501611d6f565b91505092915050565b600060208284031215611ffe57611ffd61295e565b5b600061200c84828501611d84565b91505092915050565b60008060006060848603121561202e5761202d61295e565b5b600061203c86828701611d6f565b935050602061204d86828701611d45565b925050604061205e86828701611d45565b9150509250925092565b60006120748383612135565b905092915050565b61208581612703565b82525050565b60006120968261255c565b6120a0818561257f565b9350836020820285016120b28561254c565b8060005b858110156120ee57848403895281516120cf8582612068565b94506120da83612572565b925060208a019950506001810190506120b6565b50829750879550505050505092915050565b61210981612715565b82525050565b61212061211b82612721565b612853565b82525050565b61212f81612785565b82525050565b600061214082612567565b61214a8185612590565b935061215a8185602086016127a6565b61216381612963565b840191505092915050565b600061217982612567565b61218381856125a1565b93506121938185602086016127a6565b61219c81612963565b840191505092915050565b60006121b46023836125a1565b91506121bf82612974565b604082019050919050565b60006121d76026836125a1565b91506121e2826129c3565b604082019050919050565b60006121fa6020836125a1565b915061220582612a12565b602082019050919050565b600061221d6012836125a1565b915061222882612a3b565b602082019050919050565b60006122406022836125a1565b915061224b82612a64565b604082019050919050565b60006122636026836125a1565b915061226e82612ab3565b604082019050919050565b6122828161274d565b82525050565b6122918161277b565b82525050565b60006122a3828561210f565b6001820191506122b3828461210f565b6001820191508190509392505050565b60006020820190506122d8600083018461207c565b92915050565b60006060820190506122f3600083018661207c565b612300602083018561207c565b61230d6040830184612288565b949350505050565b600060408201905061232a600083018561207c565b818103602083015261233c818461216e565b90509392505050565b600060408201905061235a600083018561207c565b6123676020830184612288565b9392505050565b60006020820190508181036000830152612388818461208b565b905092915050565b60006020820190506123a56000830184612100565b92915050565b60006040820190506123c06000830185612126565b6123cd6020830184612279565b9392505050565b600060208201905081810360008301526123ed816121a7565b9050919050565b6000602082019050818103600083015261240d816121ca565b9050919050565b6000602082019050818103600083015261242d816121ed565b9050919050565b6000602082019050818103600083015261244d81612210565b9050919050565b6000602082019050818103600083015261246d81612233565b9050919050565b6000602082019050818103600083015261248d81612256565b9050919050565b60006020820190506124a96000830184612279565b92915050565b60006020820190506124c46000830184612288565b92915050565b60006124d46124e5565b90506124e082826127d9565b919050565b6000604051905090565b600067ffffffffffffffff82111561250a5761250961291b565b5b602082029050602081019050919050565b600067ffffffffffffffff8211156125365761253561291b565b5b61253f82612963565b9050602081019050919050565b6000819050602082019050919050565b600081519050919050565b600081519050919050565b6000602082019050919050565b600082825260208201905092915050565b600082825260208201905092915050565b600082825260208201905092915050565b60006125bd8261277b565b91506125c88361277b565b9250827fffffffffffffffffffffffffffffffffffffffffffffffffffffffffffffffff038211156125fd576125fc61288e565b5b828201905092915050565b60006126138261277b565b915061261e8361277b565b92508261262e5761262d6128bd565b5b828204905092915050565b60006126448261274d565b915061264f8361274d565b92508161ffff048311821515161561266a5761266961288e565b5b828202905092915050565b60006126808261277b565b915061268b8361277b565b9250817fffffffffffffffffffffffffffffffffffffffffffffffffffffffffffffffff04831182151516156126c4576126c361288e565b5b828202905092915050565b60006126da8261277b565b91506126e58361277b565b9250828210156126f8576126f761288e565b5b828203905092915050565b600061270e8261275b565b9050919050565b60008115159050919050565b60007fff0000000000000000000000000000000000000000000000000000000000000082169050919050565b600061ffff82169050919050565b600073ffffffffffffffffffffffffffffffffffffffff82169050919050565b6000819050919050565b60006127908261274d565b9050919050565b82818337600083830152505050565b60005b838110156127c45780820151818401526020810190506127a9565b838111156127d3576000848401525b50505050565b6127e282612963565b810181811067ffffffffffffffff821117156128015761280061291b565b5b80604052505050565b60006128158261277b565b91507fffffffffffffffffffffffffffffffffffffffffffffffffffffffffffffffff8214156128485761284761288e565b5b600182019050919050565b6000819050919050565b60006128688261277b565b91506128738361277b565b925082612883576128826128bd565b5b828206905092915050565b7f4e487b7100000000000000000000000000000000000000000000000000000000600052601160045260246000fd5b7f4e487b7100000000000000000000000000000000000000000000000000000000600052601260045260246000fd5b7f4e487b7100000000000000000000000000000000000000000000000000000000600052603260045260246000fd5b7f4e487b7100000000000000000000000000000000000000000000000000000000600052604160045260246000fd5b600080fd5b600080fd5b600080fd5b600080fd5b600080fd5b6000601f19601f8301169050919050565b7f4543494f3a20596f75722062616c616e636520697320696e737566666963696560008201527f6e742e0000000000000000000000000000000000000000000000000000000000602082015250565b7f4f776e61626c653a206e6577206f776e657220697320746865207a65726f206160008201527f6464726573730000000000000000000000000000000000000000000000000000602082015250565b7f4f776e61626c653a2063616c6c6572206973206e6f7420746865206f776e6572600082015250565b7f596f7520617265206e6f74206f776e65722e0000000000000000000000000000600082015250565b7f506c65617365207573652073616d6520667261676d656e7420746f20666f726760008201527f652e000000000000000000000000000000000000000000000000000000000000602082015250565b7f4c414b52494d413a20596f75722062616c616e636520697320696e737566666960008201527f6369656e742e0000000000000000000000000000000000000000000000000000602082015250565b612b0b81612703565b8114612b1657600080fd5b50565b612b2281612715565b8114612b2d57600080fd5b50565b612b398161274d565b8114612b4457600080fd5b50565b612b508161277b565b8114612b5b57600080fd5b5056fea26469706673582212201280580e00b70e3ab5d7c3da313525f0cf8644f837382aa8d237eecf7dd2c86664736f6c63430008070033",
			"opcodes": "PUSH1 0x80 PUSH1 0x40 MSTORE PUSH10 0x21E19E0C9BAB2400000 PUSH1 0x7 SSTORE PUSH10 0x54B40B1F852BDA00000 PUSH1 0x8 SSTORE CALLVALUE DUP1 ISZERO PUSH3 0x2D JUMPI PUSH1 0x0 DUP1 REVERT JUMPDEST POP PUSH3 0x4E PUSH3 0x42 PUSH3 0x54 PUSH1 0x20 SHL PUSH1 0x20 SHR JUMP JUMPDEST PUSH3 0x5C PUSH1 0x20 SHL PUSH1 0x20 SHR JUMP JUMPDEST PUSH3 0x120 JUMP JUMPDEST PUSH1 0x0 CALLER SWAP1 POP SWAP1 JUMP JUMPDEST PUSH1 0x0 DUP1 PUSH1 0x0 SWAP1 SLOAD SWAP1 PUSH2 0x100 EXP SWAP1 DIV PUSH20 0xFFFFFFFFFFFFFFFFFFFFFFFFFFFFFFFFFFFFFFFF AND SWAP1 POP DUP2 PUSH1 0x0 DUP1 PUSH2 0x100 EXP DUP2 SLOAD DUP2 PUSH20 0xFFFFFFFFFFFFFFFFFFFFFFFFFFFFFFFFFFFFFFFF MUL NOT AND SWAP1 DUP4 PUSH20 0xFFFFFFFFFFFFFFFFFFFFFFFFFFFFFFFFFFFFFFFF AND MUL OR SWAP1 SSTORE POP DUP2 PUSH20 0xFFFFFFFFFFFFFFFFFFFFFFFFFFFFFFFFFFFFFFFF AND DUP2 PUSH20 0xFFFFFFFFFFFFFFFFFFFFFFFFFFFFFFFFFFFFFFFF AND PUSH32 0x8BE0079C531659141344CD1FD0A4F28419497F9722A3DAAFE3B4186F6B6457E0 PUSH1 0x40 MLOAD PUSH1 0x40 MLOAD DUP1 SWAP2 SUB SWAP1 LOG3 POP POP JUMP JUMPDEST PUSH2 0x2B94 DUP1 PUSH3 0x130 PUSH1 0x0 CODECOPY PUSH1 0x0 RETURN INVALID PUSH1 0x80 PUSH1 0x40 MSTORE CALLVALUE DUP1 ISZERO PUSH2 0x10 JUMPI PUSH1 0x0 DUP1 REVERT JUMPDEST POP PUSH1 0x4 CALLDATASIZE LT PUSH2 0x14D JUMPI PUSH1 0x0 CALLDATALOAD PUSH1 0xE0 SHR DUP1 PUSH4 0x8054A35D GT PUSH2 0xC3 JUMPI DUP1 PUSH4 0xB4FEE94E GT PUSH2 0x7C JUMPI DUP1 PUSH4 0xB4FEE94E EQ PUSH2 0x364 JUMPI DUP1 PUSH4 0xC4376923 EQ PUSH2 0x382 JUMPI DUP1 PUSH4 0xC5B1F381 EQ PUSH2 0x3A0 JUMPI DUP1 PUSH4 0xF2FDE38B EQ PUSH2 0x3BC JUMPI DUP1 PUSH4 0xF65A7C14 EQ PUSH2 0x3D8 JUMPI DUP1 PUSH4 0xFF1F79BC EQ PUSH2 0x3F6 JUMPI PUSH2 0x14D JUMP JUMPDEST DUP1 PUSH4 0x8054A35D EQ PUSH2 0x2A0 JUMPI DUP1 PUSH4 0x814EF95B EQ PUSH2 0x2BE JUMPI DUP1 PUSH4 0x8DA5CB5B EQ PUSH2 0x2DA JUMPI DUP1 PUSH4 0x9555BD87 EQ PUSH2 0x2F8 JUMPI DUP1 PUSH4 0x98E59284 EQ PUSH2 0x316 JUMPI DUP1 PUSH4 0xADFFA46D EQ PUSH2 0x334 JUMPI PUSH2 0x14D JUMP JUMPDEST DUP1 PUSH4 0x59D5D02A GT PUSH2 0x115 JUMPI DUP1 PUSH4 0x59D5D02A EQ PUSH2 0x1F6 JUMPI DUP1 PUSH4 0x59DD3083 EQ PUSH2 0x212 JUMPI DUP1 PUSH4 0x5C989593 EQ PUSH2 0x22E JUMPI DUP1 PUSH4 0x6498BD78 EQ PUSH2 0x25E JUMPI DUP1 PUSH4 0x715018A6 EQ PUSH2 0x27A JUMPI DUP1 PUSH4 0x76D20BCA EQ PUSH2 0x284 JUMPI PUSH2 0x14D JUMP JUMPDEST DUP1 PUSH4 0x14F75F88 EQ PUSH2 0x152 JUMPI DUP1 PUSH4 0x1E251F1E EQ PUSH2 0x16E JUMPI DUP1 PUSH4 0x33EC2258 EQ PUSH2 0x18A JUMPI DUP1 PUSH4 0x3ED6FA32 EQ PUSH2 0x1A8 JUMPI DUP1 PUSH4 0x417DF1F1 EQ PUSH2 0x1D8 JUMPI JUMPDEST PUSH1 0x0 DUP1 REVERT JUMPDEST PUSH2 0x16C PUSH1 0x4 DUP1 CALLDATASIZE SUB DUP2 ADD SWAP1 PUSH2 0x167 SWAP2 SWAP1 PUSH2 0x1D99 JUMP JUMPDEST PUSH2 0x412 JUMP JUMPDEST STOP JUMPDEST PUSH2 0x188 PUSH1 0x4 DUP1 CALLDATASIZE SUB DUP2 ADD SWAP1 PUSH2 0x183 SWAP2 SWAP1 PUSH2 0x1D99 JUMP JUMPDEST PUSH2 0x4D2 JUMP JUMPDEST STOP JUMPDEST PUSH2 0x192 PUSH2 0x592 JUMP JUMPDEST PUSH1 0x40 MLOAD PUSH2 0x19F SWAP2 SWAP1 PUSH2 0x24AF JUMP JUMPDEST PUSH1 0x40 MLOAD DUP1 SWAP2 SUB SWAP1 RETURN JUMPDEST PUSH2 0x1C2 PUSH1 0x4 DUP1 CALLDATASIZE SUB DUP2 ADD SWAP1 PUSH2 0x1BD SWAP2 SWAP1 PUSH2 0x2015 JUMP JUMPDEST PUSH2 0x598 JUMP JUMPDEST PUSH1 0x40 MLOAD PUSH2 0x1CF SWAP2 SWAP1 PUSH2 0x2494 JUMP JUMPDEST PUSH1 0x40 MLOAD DUP1 SWAP2 SUB SWAP1 RETURN JUMPDEST PUSH2 0x1E0 PUSH2 0x7DB JUMP JUMPDEST PUSH1 0x40 MLOAD PUSH2 0x1ED SWAP2 SWAP1 PUSH2 0x22C3 JUMP JUMPDEST PUSH1 0x40 MLOAD DUP1 SWAP2 SUB SWAP1 RETURN JUMPDEST PUSH2 0x210 PUSH1 0x4 DUP1 CALLDATASIZE SUB DUP2 ADD SWAP1 PUSH2 0x20B SWAP2 SWAP1 PUSH2 0x1DF3 JUMP JUMPDEST PUSH2 0x801 JUMP JUMPDEST STOP JUMPDEST PUSH2 0x22C PUSH1 0x4 DUP1 CALLDATASIZE SUB DUP2 ADD SWAP1 PUSH2 0x227 SWAP2 SWAP1 PUSH2 0x1FBB JUMP JUMPDEST PUSH2 0x916 JUMP JUMPDEST STOP JUMPDEST PUSH2 0x248 PUSH1 0x4 DUP1 CALLDATASIZE SUB DUP2 ADD SWAP1 PUSH2 0x243 SWAP2 SWAP1 PUSH2 0x1E46 JUMP JUMPDEST PUSH2 0x99C JUMP JUMPDEST PUSH1 0x40 MLOAD PUSH2 0x255 SWAP2 SWAP1 PUSH2 0x2390 JUMP JUMPDEST PUSH1 0x40 MLOAD DUP1 SWAP2 SUB SWAP1 RETURN JUMPDEST PUSH2 0x278 PUSH1 0x4 DUP1 CALLDATASIZE SUB DUP2 ADD SWAP1 PUSH2 0x273 SWAP2 SWAP1 PUSH2 0x1FBB JUMP JUMPDEST PUSH2 0x12D2 JUMP JUMPDEST STOP JUMPDEST PUSH2 0x282 PUSH2 0x1358 JUMP JUMPDEST STOP JUMPDEST PUSH2 0x29E PUSH1 0x4 DUP1 CALLDATASIZE SUB DUP2 ADD SWAP1 PUSH2 0x299 SWAP2 SWAP1 PUSH2 0x1D99 JUMP JUMPDEST PUSH2 0x13E0 JUMP JUMPDEST STOP JUMPDEST PUSH2 0x2A8 PUSH2 0x14A0 JUMP JUMPDEST PUSH1 0x40 MLOAD PUSH2 0x2B5 SWAP2 SWAP1 PUSH2 0x22C3 JUMP JUMPDEST PUSH1 0x40 MLOAD DUP1 SWAP2 SUB SWAP1 RETURN JUMPDEST PUSH2 0x2D8 PUSH1 0x4 DUP1 CALLDATASIZE SUB DUP2 ADD SWAP1 PUSH2 0x2D3 SWAP2 SWAP1 PUSH2 0x1F61 JUMP JUMPDEST PUSH2 0x14C6 JUMP JUMPDEST STOP JUMPDEST PUSH2 0x2E2 PUSH2 0x1562 JUMP JUMPDEST PUSH1 0x40 MLOAD PUSH2 0x2EF SWAP2 SWAP1 PUSH2 0x22C3 JUMP JUMPDEST PUSH1 0x40 MLOAD DUP1 SWAP2 SUB SWAP1 RETURN JUMPDEST PUSH2 0x300 PUSH2 0x158B JUMP JUMPDEST PUSH1 0x40 MLOAD PUSH2 0x30D SWAP2 SWAP1 PUSH2 0x24AF JUMP JUMPDEST PUSH1 0x40 MLOAD DUP1 SWAP2 SUB SWAP1 RETURN JUMPDEST PUSH2 0x31E PUSH2 0x1591 JUMP JUMPDEST PUSH1 0x40 MLOAD PUSH2 0x32B SWAP2 SWAP1 PUSH2 0x2494 JUMP JUMPDEST PUSH1 0x40 MLOAD DUP1 SWAP2 SUB SWAP1 RETURN JUMPDEST PUSH2 0x34E PUSH1 0x4 DUP1 CALLDATASIZE SUB DUP2 ADD SWAP1 PUSH2 0x349 SWAP2 SWAP1 PUSH2 0x1EBC JUMP JUMPDEST PUSH2 0x15A5 JUMP JUMPDEST PUSH1 0x40 MLOAD PUSH2 0x35B SWAP2 SWAP1 PUSH2 0x236E JUMP JUMPDEST PUSH1 0x40 MLOAD DUP1 SWAP2 SUB SWAP1 RETURN JUMPDEST PUSH2 0x36C PUSH2 0x16D9 JUMP JUMPDEST PUSH1 0x40 MLOAD PUSH2 0x379 SWAP2 SWAP1 PUSH2 0x22C3 JUMP JUMPDEST PUSH1 0x40 MLOAD DUP1 SWAP2 SUB SWAP1 RETURN JUMPDEST PUSH2 0x38A PUSH2 0x16FF JUMP JUMPDEST PUSH1 0x40 MLOAD PUSH2 0x397 SWAP2 SWAP1 PUSH2 0x22C3 JUMP JUMPDEST PUSH1 0x40 MLOAD DUP1 SWAP2 SUB SWAP1 RETURN JUMPDEST PUSH2 0x3BA PUSH1 0x4 DUP1 CALLDATASIZE SUB DUP2 ADD SWAP1 PUSH2 0x3B5 SWAP2 SWAP1 PUSH2 0x1D99 JUMP JUMPDEST PUSH2 0x1725 JUMP JUMPDEST STOP JUMPDEST PUSH2 0x3D6 PUSH1 0x4 DUP1 CALLDATASIZE SUB DUP2 ADD SWAP1 PUSH2 0x3D1 SWAP2 SWAP1 PUSH2 0x1D99 JUMP JUMPDEST PUSH2 0x17E5 JUMP JUMPDEST STOP JUMPDEST PUSH2 0x3E0 PUSH2 0x18DD JUMP JUMPDEST PUSH1 0x40 MLOAD PUSH2 0x3ED SWAP2 SWAP1 PUSH2 0x22C3 JUMP JUMPDEST PUSH1 0x40 MLOAD DUP1 SWAP2 SUB SWAP1 RETURN JUMPDEST PUSH2 0x410 PUSH1 0x4 DUP1 CALLDATASIZE SUB DUP2 ADD SWAP1 PUSH2 0x40B SWAP2 SWAP1 PUSH2 0x1D99 JUMP JUMPDEST PUSH2 0x1903 JUMP JUMPDEST STOP JUMPDEST PUSH2 0x41A PUSH2 0x19C3 JUMP JUMPDEST PUSH20 0xFFFFFFFFFFFFFFFFFFFFFFFFFFFFFFFFFFFFFFFF AND PUSH2 0x438 PUSH2 0x1562 JUMP JUMPDEST PUSH20 0xFFFFFFFFFFFFFFFFFFFFFFFFFFFFFFFFFFFFFFFF AND EQ PUSH2 0x48E JUMPI PUSH1 0x40 MLOAD PUSH32 0x8C379A000000000000000000000000000000000000000000000000000000000 DUP2 MSTORE PUSH1 0x4 ADD PUSH2 0x485 SWAP1 PUSH2 0x2414 JUMP JUMPDEST PUSH1 0x40 MLOAD DUP1 SWAP2 SUB SWAP1 REVERT JUMPDEST DUP1 PUSH1 0x2 PUSH1 0x0 PUSH2 0x100 EXP DUP2 SLOAD DUP2 PUSH20 0xFFFFFFFFFFFFFFFFFFFFFFFFFFFFFFFFFFFFFFFF MUL NOT AND SWAP1 DUP4 PUSH20 0xFFFFFFFFFFFFFFFFFFFFFFFFFFFFFFFFFFFFFFFF AND MUL OR SWAP1 SSTORE POP POP JUMP JUMPDEST PUSH2 0x4DA PUSH2 0x19C3 JUMP JUMPDEST PUSH20 0xFFFFFFFFFFFFFFFFFFFFFFFFFFFFFFFFFFFFFFFF AND PUSH2 0x4F8 PUSH2 0x1562 JUMP JUMPDEST PUSH20 0xFFFFFFFFFFFFFFFFFFFFFFFFFFFFFFFFFFFFFFFF AND EQ PUSH2 0x54E JUMPI PUSH1 0x40 MLOAD PUSH32 0x8C379A000000000000000000000000000000000000000000000000000000000 DUP2 MSTORE PUSH1 0x4 ADD PUSH2 0x545 SWAP1 PUSH2 0x2414 JUMP JUMPDEST PUSH1 0x40 MLOAD DUP1 SWAP2 SUB SWAP1 REVERT JUMPDEST DUP1 PUSH1 0x3 PUSH1 0x0 PUSH2 0x100 EXP DUP2 SLOAD DUP2 PUSH20 0xFFFFFFFFFFFFFFFFFFFFFFFFFFFFFFFFFFFFFFFF MUL NOT AND SWAP1 DUP4 PUSH20 0xFFFFFFFFFFFFFFFFFFFFFFFFFFFFFFFFFFFFFFFF AND MUL OR SWAP1 SSTORE POP POP JUMP JUMPDEST PUSH1 0x8 SLOAD DUP2 JUMP JUMPDEST PUSH1 0x0 PUSH1 0x1 DUP4 PUSH2 0xFFFF AND EQ ISZERO PUSH2 0x5CB JUMPI DUP2 PUSH2 0xFFFF AND PUSH2 0x2710 DUP6 PUSH2 0x5BA SWAP2 SWAP1 PUSH2 0x285D JUMP JUMPDEST PUSH2 0x5C4 SWAP2 SWAP1 PUSH2 0x285D JUMP JUMPDEST SWAP1 POP PUSH2 0x7D4 JUMP JUMPDEST PUSH1 0x2 DUP4 PUSH2 0xFFFF AND EQ ISZERO PUSH2 0x60B JUMPI DUP2 PUSH2 0xFFFF AND PUSH2 0x2710 PUSH4 0x5F5E100 DUP7 PUSH2 0x5F0 SWAP2 SWAP1 PUSH2 0x285D JUMP JUMPDEST PUSH2 0x5FA SWAP2 SWAP1 PUSH2 0x2608 JUMP JUMPDEST PUSH2 0x604 SWAP2 SWAP1 PUSH2 0x285D JUMP JUMPDEST SWAP1 POP PUSH2 0x7D4 JUMP JUMPDEST PUSH1 0x3 DUP4 PUSH2 0xFFFF AND EQ ISZERO PUSH2 0x64E JUMPI DUP2 PUSH2 0xFFFF AND PUSH4 0x5F5E100 PUSH5 0xE8D4A51000 DUP7 PUSH2 0x633 SWAP2 SWAP1 PUSH2 0x285D JUMP JUMPDEST PUSH2 0x63D SWAP2 SWAP1 PUSH2 0x2608 JUMP JUMPDEST PUSH2 0x647 SWAP2 SWAP1 PUSH2 0x285D JUMP JUMPDEST SWAP1 POP PUSH2 0x7D4 JUMP JUMPDEST PUSH1 0x4 DUP4 PUSH2 0xFFFF AND EQ ISZERO PUSH2 0x694 JUMPI DUP2 PUSH2 0xFFFF AND PUSH5 0xE8D4A51000 PUSH7 0x2386F26FC10000 DUP7 PUSH2 0x679 SWAP2 SWAP1 PUSH2 0x285D JUMP JUMPDEST PUSH2 0x683 SWAP2 SWAP1 PUSH2 0x2608 JUMP JUMPDEST PUSH2 0x68D SWAP2 SWAP1 PUSH2 0x285D JUMP JUMPDEST SWAP1 POP PUSH2 0x7D4 JUMP JUMPDEST PUSH1 0x5 DUP4 PUSH2 0xFFFF AND EQ ISZERO PUSH2 0x6DE JUMPI DUP2 PUSH2 0xFFFF AND PUSH7 0x2386F26FC10000 PUSH9 0x56BC75E2D63100000 DUP7 PUSH2 0x6C3 SWAP2 SWAP1 PUSH2 0x285D JUMP JUMPDEST PUSH2 0x6CD SWAP2 SWAP1 PUSH2 0x2608 JUMP JUMPDEST PUSH2 0x6D7 SWAP2 SWAP1 PUSH2 0x285D JUMP JUMPDEST SWAP1 POP PUSH2 0x7D4 JUMP JUMPDEST PUSH1 0x6 DUP4 PUSH2 0xFFFF AND EQ ISZERO PUSH2 0x72B JUMPI DUP2 PUSH2 0xFFFF AND PUSH9 0x56BC75E2D63100000 PUSH10 0xD3C21BCECCEDA1000000 DUP7 PUSH2 0x710 SWAP2 SWAP1 PUSH2 0x285D JUMP JUMPDEST PUSH2 0x71A SWAP2 SWAP1 PUSH2 0x2608 JUMP JUMPDEST PUSH2 0x724 SWAP2 SWAP1 PUSH2 0x285D JUMP JUMPDEST SWAP1 POP PUSH2 0x7D4 JUMP JUMPDEST PUSH1 0x7 DUP4 PUSH2 0xFFFF AND EQ ISZERO PUSH2 0x77B JUMPI DUP2 PUSH2 0xFFFF AND PUSH10 0xD3C21BCECCEDA1000000 PUSH12 0x204FCE5E3E25026110000000 DUP7 PUSH2 0x760 SWAP2 SWAP1 PUSH2 0x285D JUMP JUMPDEST PUSH2 0x76A SWAP2 SWAP1 PUSH2 0x2608 JUMP JUMPDEST PUSH2 0x774 SWAP2 SWAP1 PUSH2 0x285D JUMP JUMPDEST SWAP1 POP PUSH2 0x7D4 JUMP JUMPDEST PUSH1 0x8 DUP4 PUSH2 0xFFFF AND EQ ISZERO PUSH2 0x7CF JUMPI DUP2 PUSH2 0xFFFF AND PUSH12 0x204FCE5E3E25026110000000 PUSH14 0x4EE2D6D415B85ACEF8100000000 DUP7 PUSH2 0x7B4 SWAP2 SWAP1 PUSH2 0x285D JUMP JUMPDEST PUSH2 0x7BE SWAP2 SWAP1 PUSH2 0x2608 JUMP JUMPDEST PUSH2 0x7C8 SWAP2 SWAP1 PUSH2 0x285D JUMP JUMPDEST SWAP1 POP PUSH2 0x7D4 JUMP JUMPDEST PUSH1 0x0 SWAP1 POP JUMPDEST SWAP4 SWAP3 POP POP POP JUMP JUMPDEST PUSH1 0x1 PUSH1 0x0 SWAP1 SLOAD SWAP1 PUSH2 0x100 EXP SWAP1 DIV PUSH20 0xFFFFFFFFFFFFFFFFFFFFFFFFFFFFFFFFFFFFFFFF AND DUP2 JUMP JUMPDEST PUSH2 0x809 PUSH2 0x19C3 JUMP JUMPDEST PUSH20 0xFFFFFFFFFFFFFFFFFFFFFFFFFFFFFFFFFFFFFFFF AND PUSH2 0x827 PUSH2 0x1562 JUMP JUMPDEST PUSH20 0xFFFFFFFFFFFFFFFFFFFFFFFFFFFFFFFFFFFFFFFF AND EQ PUSH2 0x87D JUMPI PUSH1 0x40 MLOAD PUSH32 0x8C379A000000000000000000000000000000000000000000000000000000000 DUP2 MSTORE PUSH1 0x4 ADD PUSH2 0x874 SWAP1 PUSH2 0x2414 JUMP JUMPDEST PUSH1 0x40 MLOAD DUP1 SWAP2 SUB SWAP1 REVERT JUMPDEST PUSH1 0x0 DUP4 SWAP1 POP DUP1 PUSH20 0xFFFFFFFFFFFFFFFFFFFFFFFFFFFFFFFFFFFFFFFF AND PUSH4 0xA9059CBB DUP5 DUP5 PUSH1 0x40 MLOAD DUP4 PUSH4 0xFFFFFFFF AND PUSH1 0xE0 SHL DUP2 MSTORE PUSH1 0x4 ADD PUSH2 0x8BD SWAP3 SWAP2 SWAP1 PUSH2 0x2345 JUMP JUMPDEST PUSH1 0x20 PUSH1 0x40 MLOAD DUP1 DUP4 SUB DUP2 PUSH1 0x0 DUP8 DUP1 EXTCODESIZE ISZERO DUP1 ISZERO PUSH2 0x8D7 JUMPI PUSH1 0x0 DUP1 REVERT JUMPDEST POP GAS CALL ISZERO DUP1 ISZERO PUSH2 0x8EB JUMPI RETURNDATASIZE PUSH1 0x0 DUP1 RETURNDATACOPY RETURNDATASIZE PUSH1 0x0 REVERT JUMPDEST POP POP POP POP PUSH1 0x40 MLOAD RETURNDATASIZE PUSH1 0x1F NOT PUSH1 0x1F DUP3 ADD AND DUP3 ADD DUP1 PUSH1 0x40 MSTORE POP DUP2 ADD SWAP1 PUSH2 0x90F SWAP2 SWAP1 PUSH2 0x1E8F JUMP JUMPDEST POP POP POP POP POP JUMP JUMPDEST PUSH2 0x91E PUSH2 0x19C3 JUMP JUMPDEST PUSH20 0xFFFFFFFFFFFFFFFFFFFFFFFFFFFFFFFFFFFFFFFF AND PUSH2 0x93C PUSH2 0x1562 JUMP JUMPDEST PUSH20 0xFFFFFFFFFFFFFFFFFFFFFFFFFFFFFFFFFFFFFFFF AND EQ PUSH2 0x992 JUMPI PUSH1 0x40 MLOAD PUSH32 0x8C379A000000000000000000000000000000000000000000000000000000000 DUP2 MSTORE PUSH1 0x4 ADD PUSH2 0x989 SWAP1 PUSH2 0x2414 JUMP JUMPDEST PUSH1 0x40 MLOAD DUP1 SWAP2 SUB SWAP1 REVERT JUMPDEST DUP1 PUSH1 0x8 DUP2 SWAP1 SSTORE POP POP JUMP JUMPDEST PUSH1 0x0 DUP1 PUSH1 0x2 PUSH1 0x0 SWAP1 SLOAD SWAP1 PUSH2 0x100 EXP SWAP1 DIV PUSH20 0xFFFFFFFFFFFFFFFFFFFFFFFFFFFFFFFFFFFFFFFF AND PUSH20 0xFFFFFFFFFFFFFFFFFFFFFFFFFFFFFFFFFFFFFFFF AND PUSH4 0x70A08231 CALLER PUSH1 0x40 MLOAD DUP3 PUSH4 0xFFFFFFFF AND PUSH1 0xE0 SHL DUP2 MSTORE PUSH1 0x4 ADD PUSH2 0x9FA SWAP2 SWAP1 PUSH2 0x22C3 JUMP JUMPDEST PUSH1 0x20 PUSH1 0x40 MLOAD DUP1 DUP4 SUB DUP2 DUP7 DUP1 EXTCODESIZE ISZERO DUP1 ISZERO PUSH2 0xA12 JUMPI PUSH1 0x0 DUP1 REVERT JUMPDEST POP GAS STATICCALL ISZERO DUP1 ISZERO PUSH2 0xA26 JUMPI RETURNDATASIZE PUSH1 0x0 DUP1 RETURNDATACOPY RETURNDATASIZE PUSH1 0x0 REVERT JUMPDEST POP POP POP POP PUSH1 0x40 MLOAD RETURNDATASIZE PUSH1 0x1F NOT PUSH1 0x1F DUP3 ADD AND DUP3 ADD DUP1 PUSH1 0x40 MSTORE POP DUP2 ADD SWAP1 PUSH2 0xA4A SWAP2 SWAP1 PUSH2 0x1FE8 JUMP JUMPDEST SWAP1 POP DUP3 MLOAD PUSH1 0x7 SLOAD PUSH2 0xA5B SWAP2 SWAP1 PUSH2 0x2675 JUMP JUMPDEST DUP2 LT ISZERO PUSH2 0xA9D JUMPI PUSH1 0x40 MLOAD PUSH32 0x8C379A000000000000000000000000000000000000000000000000000000000 DUP2 MSTORE PUSH1 0x4 ADD PUSH2 0xA94 SWAP1 PUSH2 0x23D4 JUMP JUMPDEST PUSH1 0x40 MLOAD DUP1 SWAP2 SUB SWAP1 REVERT JUMPDEST PUSH1 0x0 PUSH1 0x3 PUSH1 0x0 SWAP1 SLOAD SWAP1 PUSH2 0x100 EXP SWAP1 DIV PUSH20 0xFFFFFFFFFFFFFFFFFFFFFFFFFFFFFFFFFFFFFFFF AND PUSH20 0xFFFFFFFFFFFFFFFFFFFFFFFFFFFFFFFFFFFFFFFF AND PUSH4 0x70A08231 CALLER PUSH1 0x40 MLOAD DUP3 PUSH4 0xFFFFFFFF AND PUSH1 0xE0 SHL DUP2 MSTORE PUSH1 0x4 ADD PUSH2 0xAFA SWAP2 SWAP1 PUSH2 0x22C3 JUMP JUMPDEST PUSH1 0x20 PUSH1 0x40 MLOAD DUP1 DUP4 SUB DUP2 DUP7 DUP1 EXTCODESIZE ISZERO DUP1 ISZERO PUSH2 0xB12 JUMPI PUSH1 0x0 DUP1 REVERT JUMPDEST POP GAS STATICCALL ISZERO DUP1 ISZERO PUSH2 0xB26 JUMPI RETURNDATASIZE PUSH1 0x0 DUP1 RETURNDATACOPY RETURNDATASIZE PUSH1 0x0 REVERT JUMPDEST POP POP POP POP PUSH1 0x40 MLOAD RETURNDATASIZE PUSH1 0x1F NOT PUSH1 0x1F DUP3 ADD AND DUP3 ADD DUP1 PUSH1 0x40 MSTORE POP DUP2 ADD SWAP1 PUSH2 0xB4A SWAP2 SWAP1 PUSH2 0x1FE8 JUMP JUMPDEST SWAP1 POP DUP4 MLOAD PUSH1 0x8 SLOAD PUSH2 0xB5B SWAP2 SWAP1 PUSH2 0x2675 JUMP JUMPDEST DUP2 LT ISZERO PUSH2 0xB9D JUMPI PUSH1 0x40 MLOAD PUSH32 0x8C379A000000000000000000000000000000000000000000000000000000000 DUP2 MSTORE PUSH1 0x4 ADD PUSH2 0xB94 SWAP1 PUSH2 0x2474 JUMP JUMPDEST PUSH1 0x40 MLOAD DUP1 SWAP2 SUB SWAP1 REVERT JUMPDEST PUSH1 0x60 PUSH1 0x0 JUMPDEST DUP6 MLOAD DUP2 LT ISZERO PUSH2 0x12C8 JUMPI CALLER PUSH20 0xFFFFFFFFFFFFFFFFFFFFFFFFFFFFFFFFFFFFFFFF AND PUSH1 0x1 PUSH1 0x0 SWAP1 SLOAD SWAP1 PUSH2 0x100 EXP SWAP1 DIV PUSH20 0xFFFFFFFFFFFFFFFFFFFFFFFFFFFFFFFFFFFFFFFF AND PUSH20 0xFFFFFFFFFFFFFFFFFFFFFFFFFFFFFFFFFFFFFFFF AND PUSH4 0x6352211E DUP9 DUP5 DUP2 MLOAD DUP2 LT PUSH2 0xC13 JUMPI PUSH2 0xC12 PUSH2 0x28EC JUMP JUMPDEST JUMPDEST PUSH1 0x20 MUL PUSH1 0x20 ADD ADD MLOAD PUSH1 0x40 MLOAD DUP3 PUSH4 0xFFFFFFFF AND PUSH1 0xE0 SHL DUP2 MSTORE PUSH1 0x4 ADD PUSH2 0xC37 SWAP2 SWAP1 PUSH2 0x24AF JUMP JUMPDEST PUSH1 0x20 PUSH1 0x40 MLOAD DUP1 DUP4 SUB DUP2 DUP7 DUP1 EXTCODESIZE ISZERO DUP1 ISZERO PUSH2 0xC4F JUMPI PUSH1 0x0 DUP1 REVERT JUMPDEST POP GAS STATICCALL ISZERO DUP1 ISZERO PUSH2 0xC63 JUMPI RETURNDATASIZE PUSH1 0x0 DUP1 RETURNDATACOPY RETURNDATASIZE PUSH1 0x0 REVERT JUMPDEST POP POP POP POP PUSH1 0x40 MLOAD RETURNDATASIZE PUSH1 0x1F NOT PUSH1 0x1F DUP3 ADD AND DUP3 ADD DUP1 PUSH1 0x40 MSTORE POP DUP2 ADD SWAP1 PUSH2 0xC87 SWAP2 SWAP1 PUSH2 0x1DC6 JUMP JUMPDEST PUSH20 0xFFFFFFFFFFFFFFFFFFFFFFFFFFFFFFFFFFFFFFFF AND EQ PUSH2 0xCDD JUMPI PUSH1 0x40 MLOAD PUSH32 0x8C379A000000000000000000000000000000000000000000000000000000000 DUP2 MSTORE PUSH1 0x4 ADD PUSH2 0xCD4 SWAP1 PUSH2 0x2434 JUMP JUMPDEST PUSH1 0x40 MLOAD DUP1 SWAP2 SUB SWAP1 REVERT JUMPDEST PUSH1 0x0 PUSH2 0xD02 DUP8 DUP4 DUP2 MLOAD DUP2 LT PUSH2 0xCF5 JUMPI PUSH2 0xCF4 PUSH2 0x28EC JUMP JUMPDEST JUMPDEST PUSH1 0x20 MUL PUSH1 0x20 ADD ADD MLOAD PUSH2 0x19CB JUMP JUMPDEST SWAP1 POP PUSH1 0x0 DUP3 EQ PUSH2 0xD61 JUMPI DUP1 DUP1 MLOAD SWAP1 PUSH1 0x20 ADD KECCAK256 DUP4 DUP1 MLOAD SWAP1 PUSH1 0x20 ADD KECCAK256 EQ PUSH2 0xD5C JUMPI PUSH1 0x40 MLOAD PUSH32 0x8C379A000000000000000000000000000000000000000000000000000000000 DUP2 MSTORE PUSH1 0x4 ADD PUSH2 0xD53 SWAP1 PUSH2 0x2454 JUMP JUMPDEST PUSH1 0x40 MLOAD DUP1 SWAP2 SUB SWAP1 REVERT JUMPDEST PUSH2 0xD65 JUMP JUMPDEST DUP1 SWAP3 POP JUMPDEST PUSH1 0x1 PUSH1 0x0 SWAP1 SLOAD SWAP1 PUSH2 0x100 EXP SWAP1 DIV PUSH20 0xFFFFFFFFFFFFFFFFFFFFFFFFFFFFFFFFFFFFFFFF AND PUSH20 0xFFFFFFFFFFFFFFFFFFFFFFFFFFFFFFFFFFFFFFFF AND PUSH4 0x23B872DD CALLER ADDRESS DUP11 DUP7 DUP2 MLOAD DUP2 LT PUSH2 0xDB8 JUMPI PUSH2 0xDB7 PUSH2 0x28EC JUMP JUMPDEST JUMPDEST PUSH1 0x20 MUL PUSH1 0x20 ADD ADD MLOAD PUSH1 0x40 MLOAD DUP5 PUSH4 0xFFFFFFFF AND PUSH1 0xE0 SHL DUP2 MSTORE PUSH1 0x4 ADD PUSH2 0xDDE SWAP4 SWAP3 SWAP2 SWAP1 PUSH2 0x22DE JUMP JUMPDEST PUSH1 0x0 PUSH1 0x40 MLOAD DUP1 DUP4 SUB DUP2 PUSH1 0x0 DUP8 DUP1 EXTCODESIZE ISZERO DUP1 ISZERO PUSH2 0xDF8 JUMPI PUSH1 0x0 DUP1 REVERT JUMPDEST POP GAS CALL ISZERO DUP1 ISZERO PUSH2 0xE0C JUMPI RETURNDATASIZE PUSH1 0x0 DUP1 RETURNDATACOPY RETURNDATASIZE PUSH1 0x0 REVERT JUMPDEST POP POP POP POP PUSH1 0x1 DUP8 MLOAD PUSH2 0xE1E SWAP2 SWAP1 PUSH2 0x26CF JUMP JUMPDEST DUP3 EQ ISZERO PUSH2 0x12B4 JUMPI PUSH1 0x2 PUSH1 0x0 SWAP1 SLOAD SWAP1 PUSH2 0x100 EXP SWAP1 DIV PUSH20 0xFFFFFFFFFFFFFFFFFFFFFFFFFFFFFFFFFFFFFFFF AND PUSH20 0xFFFFFFFFFFFFFFFFFFFFFFFFFFFFFFFFFFFFFFFF AND PUSH4 0x23B872DD CALLER ADDRESS DUP11 MLOAD PUSH1 0x7 SLOAD PUSH2 0xE74 SWAP2 SWAP1 PUSH2 0x2675 JUMP JUMPDEST PUSH1 0x40 MLOAD DUP5 PUSH4 0xFFFFFFFF AND PUSH1 0xE0 SHL DUP2 MSTORE PUSH1 0x4 ADD PUSH2 0xE92 SWAP4 SWAP3 SWAP2 SWAP1 PUSH2 0x22DE JUMP JUMPDEST PUSH1 0x20 PUSH1 0x40 MLOAD DUP1 DUP4 SUB DUP2 PUSH1 0x0 DUP8 DUP1 EXTCODESIZE ISZERO DUP1 ISZERO PUSH2 0xEAC JUMPI PUSH1 0x0 DUP1 REVERT JUMPDEST POP GAS CALL ISZERO DUP1 ISZERO PUSH2 0xEC0 JUMPI RETURNDATASIZE PUSH1 0x0 DUP1 RETURNDATACOPY RETURNDATASIZE PUSH1 0x0 REVERT JUMPDEST POP POP POP POP PUSH1 0x40 MLOAD RETURNDATASIZE PUSH1 0x1F NOT PUSH1 0x1F DUP3 ADD AND DUP3 ADD DUP1 PUSH1 0x40 MSTORE POP DUP2 ADD SWAP1 PUSH2 0xEE4 SWAP2 SWAP1 PUSH2 0x1E8F JUMP JUMPDEST POP PUSH1 0x3 PUSH1 0x0 SWAP1 SLOAD SWAP1 PUSH2 0x100 EXP SWAP1 DIV PUSH20 0xFFFFFFFFFFFFFFFFFFFFFFFFFFFFFFFFFFFFFFFF AND PUSH20 0xFFFFFFFFFFFFFFFFFFFFFFFFFFFFFFFFFFFFFFFF AND PUSH4 0x23B872DD CALLER ADDRESS DUP11 MLOAD PUSH1 0x8 SLOAD PUSH2 0xF34 SWAP2 SWAP1 PUSH2 0x2675 JUMP JUMPDEST PUSH1 0x40 MLOAD DUP5 PUSH4 0xFFFFFFFF AND PUSH1 0xE0 SHL DUP2 MSTORE PUSH1 0x4 ADD PUSH2 0xF52 SWAP4 SWAP3 SWAP2 SWAP1 PUSH2 0x22DE JUMP JUMPDEST PUSH1 0x20 PUSH1 0x40 MLOAD DUP1 DUP4 SUB DUP2 PUSH1 0x0 DUP8 DUP1 EXTCODESIZE ISZERO DUP1 ISZERO PUSH2 0xF6C JUMPI PUSH1 0x0 DUP1 REVERT JUMPDEST POP GAS CALL ISZERO DUP1 ISZERO PUSH2 0xF80 JUMPI RETURNDATASIZE PUSH1 0x0 DUP1 RETURNDATACOPY RETURNDATASIZE PUSH1 0x0 REVERT JUMPDEST POP POP POP POP PUSH1 0x40 MLOAD RETURNDATASIZE PUSH1 0x1F NOT PUSH1 0x1F DUP3 ADD AND DUP3 ADD DUP1 PUSH1 0x40 MSTORE POP DUP2 ADD SWAP1 PUSH2 0xFA4 SWAP2 SWAP1 PUSH2 0x1E8F JUMP JUMPDEST POP PUSH1 0x0 PUSH1 0x5 PUSH1 0x14 SWAP1 SLOAD SWAP1 PUSH2 0x100 EXP SWAP1 DIV PUSH2 0xFFFF AND DUP9 MLOAD PUSH2 0xFC4 SWAP2 SWAP1 PUSH2 0x2639 JUMP JUMPDEST SWAP1 POP PUSH1 0x64 DUP2 PUSH2 0xFFFF AND LT PUSH2 0x107E JUMPI PUSH1 0x0 PUSH2 0xFDD DUP6 PUSH2 0x1AA3 JUMP JUMPDEST SWAP1 POP PUSH1 0x1 PUSH1 0x0 SWAP1 SLOAD SWAP1 PUSH2 0x100 EXP SWAP1 DIV PUSH20 0xFFFFFFFFFFFFFFFFFFFFFFFFFFFFFFFFFFFFFFFF AND PUSH20 0xFFFFFFFFFFFFFFFFFFFFFFFFFFFFFFFFFFFFFFFF AND PUSH4 0xD204C45E CALLER DUP4 PUSH1 0x40 MLOAD DUP4 PUSH4 0xFFFFFFFF AND PUSH1 0xE0 SHL DUP2 MSTORE PUSH1 0x4 ADD PUSH2 0x103C SWAP3 SWAP2 SWAP1 PUSH2 0x2315 JUMP JUMPDEST PUSH1 0x0 PUSH1 0x40 MLOAD DUP1 DUP4 SUB DUP2 PUSH1 0x0 DUP8 DUP1 EXTCODESIZE ISZERO DUP1 ISZERO PUSH2 0x1056 JUMPI PUSH1 0x0 DUP1 REVERT JUMPDEST POP GAS CALL ISZERO DUP1 ISZERO PUSH2 0x106A JUMPI RETURNDATASIZE PUSH1 0x0 DUP1 RETURNDATACOPY RETURNDATASIZE PUSH1 0x0 REVERT JUMPDEST POP POP POP POP PUSH1 0x1 SWAP8 POP POP POP POP POP POP POP POP PUSH2 0x12CD JUMP JUMPDEST PUSH1 0x4 PUSH1 0x0 SWAP1 SLOAD SWAP1 PUSH2 0x100 EXP SWAP1 DIV PUSH20 0xFFFFFFFFFFFFFFFFFFFFFFFFFFFFFFFFFFFFFFFF AND PUSH20 0xFFFFFFFFFFFFFFFFFFFFFFFFFFFFFFFFFFFFFFFF AND PUSH4 0x4B1D0EAE PUSH1 0x40 MLOAD DUP2 PUSH4 0xFFFFFFFF AND PUSH1 0xE0 SHL DUP2 MSTORE PUSH1 0x4 ADD PUSH1 0x20 PUSH1 0x40 MLOAD DUP1 DUP4 SUB DUP2 PUSH1 0x0 DUP8 DUP1 EXTCODESIZE ISZERO DUP1 ISZERO PUSH2 0x10E8 JUMPI PUSH1 0x0 DUP1 REVERT JUMPDEST POP GAS CALL ISZERO DUP1 ISZERO PUSH2 0x10FC JUMPI RETURNDATASIZE PUSH1 0x0 DUP1 RETURNDATACOPY RETURNDATASIZE PUSH1 0x0 REVERT JUMPDEST POP POP POP POP PUSH1 0x40 MLOAD RETURNDATASIZE PUSH1 0x1F NOT PUSH1 0x1F DUP3 ADD AND DUP3 ADD DUP1 PUSH1 0x40 MSTORE POP DUP2 ADD SWAP1 PUSH2 0x1120 SWAP2 SWAP1 PUSH2 0x1FE8 JUMP JUMPDEST PUSH1 0x6 DUP2 SWAP1 SSTORE POP PUSH1 0x0 PUSH1 0x5 PUSH1 0x0 SWAP1 SLOAD SWAP1 PUSH2 0x100 EXP SWAP1 DIV PUSH20 0xFFFFFFFFFFFFFFFFFFFFFFFFFFFFFFFFFFFFFFFF AND PUSH20 0xFFFFFFFFFFFFFFFFFFFFFFFFFFFFFFFFFFFFFFFF AND PUSH4 0xCAFB8C77 PUSH1 0x5 PUSH2 0x1178 PUSH1 0x6 SLOAD PUSH1 0x5 PUSH2 0x3E8 PUSH2 0x598 JUMP JUMPDEST PUSH1 0x40 MLOAD DUP4 PUSH4 0xFFFFFFFF AND PUSH1 0xE0 SHL DUP2 MSTORE PUSH1 0x4 ADD PUSH2 0x1195 SWAP3 SWAP2 SWAP1 PUSH2 0x23AB JUMP JUMPDEST PUSH1 0x20 PUSH1 0x40 MLOAD DUP1 DUP4 SUB DUP2 DUP7 DUP1 EXTCODESIZE ISZERO DUP1 ISZERO PUSH2 0x11AD JUMPI PUSH1 0x0 DUP1 REVERT JUMPDEST POP GAS STATICCALL ISZERO DUP1 ISZERO PUSH2 0x11C1 JUMPI RETURNDATASIZE PUSH1 0x0 DUP1 RETURNDATACOPY RETURNDATASIZE PUSH1 0x0 REVERT JUMPDEST POP POP POP POP PUSH1 0x40 MLOAD RETURNDATASIZE PUSH1 0x1F NOT PUSH1 0x1F DUP3 ADD AND DUP3 ADD DUP1 PUSH1 0x40 MSTORE POP DUP2 ADD SWAP1 PUSH2 0x11E5 SWAP2 SWAP1 PUSH2 0x1F8E JUMP JUMPDEST SWAP1 POP DUP1 PUSH2 0xFFFF AND DUP3 PUSH2 0xFFFF AND GT ISZERO PUSH2 0x12A4 JUMPI PUSH1 0x0 PUSH2 0x1202 DUP7 PUSH2 0x1AA3 JUMP JUMPDEST SWAP1 POP PUSH1 0x1 PUSH1 0x0 SWAP1 SLOAD SWAP1 PUSH2 0x100 EXP SWAP1 DIV PUSH20 0xFFFFFFFFFFFFFFFFFFFFFFFFFFFFFFFFFFFFFFFF AND PUSH20 0xFFFFFFFFFFFFFFFFFFFFFFFFFFFFFFFFFFFFFFFF AND PUSH4 0xD204C45E CALLER DUP4 PUSH1 0x40 MLOAD DUP4 PUSH4 0xFFFFFFFF AND PUSH1 0xE0 SHL DUP2 MSTORE PUSH1 0x4 ADD PUSH2 0x1261 SWAP3 SWAP2 SWAP1 PUSH2 0x2315 JUMP JUMPDEST PUSH1 0x0 PUSH1 0x40 MLOAD DUP1 DUP4 SUB DUP2 PUSH1 0x0 DUP8 DUP1 EXTCODESIZE ISZERO DUP1 ISZERO PUSH2 0x127B JUMPI PUSH1 0x0 DUP1 REVERT JUMPDEST POP GAS CALL ISZERO DUP1 ISZERO PUSH2 0x128F JUMPI RETURNDATASIZE PUSH1 0x0 DUP1 RETURNDATACOPY RETURNDATASIZE PUSH1 0x0 REVERT JUMPDEST POP POP POP POP PUSH1 0x1 SWAP9 POP POP POP POP POP POP POP POP POP PUSH2 0x12CD JUMP JUMPDEST PUSH1 0x0 SWAP8 POP POP POP POP POP POP POP POP PUSH2 0x12CD JUMP JUMPDEST POP DUP1 DUP1 PUSH2 0x12C0 SWAP1 PUSH2 0x280A JUMP JUMPDEST SWAP2 POP POP PUSH2 0xBA2 JUMP JUMPDEST POP POP POP POP JUMPDEST SWAP2 SWAP1 POP JUMP JUMPDEST PUSH2 0x12DA PUSH2 0x19C3 JUMP JUMPDEST PUSH20 0xFFFFFFFFFFFFFFFFFFFFFFFFFFFFFFFFFFFFFFFF AND PUSH2 0x12F8 PUSH2 0x1562 JUMP JUMPDEST PUSH20 0xFFFFFFFFFFFFFFFFFFFFFFFFFFFFFFFFFFFFFFFF AND EQ PUSH2 0x134E JUMPI PUSH1 0x40 MLOAD PUSH32 0x8C379A000000000000000000000000000000000000000000000000000000000 DUP2 MSTORE PUSH1 0x4 ADD PUSH2 0x1345 SWAP1 PUSH2 0x2414 JUMP JUMPDEST PUSH1 0x40 MLOAD DUP1 SWAP2 SUB SWAP1 REVERT JUMPDEST DUP1 PUSH1 0x7 DUP2 SWAP1 SSTORE POP POP JUMP JUMPDEST PUSH2 0x1360 PUSH2 0x19C3 JUMP JUMPDEST PUSH20 0xFFFFFFFFFFFFFFFFFFFFFFFFFFFFFFFFFFFFFFFF AND PUSH2 0x137E PUSH2 0x1562 JUMP JUMPDEST PUSH20 0xFFFFFFFFFFFFFFFFFFFFFFFFFFFFFFFFFFFFFFFF AND EQ PUSH2 0x13D4 JUMPI PUSH1 0x40 MLOAD PUSH32 0x8C379A000000000000000000000000000000000000000000000000000000000 DUP2 MSTORE PUSH1 0x4 ADD PUSH2 0x13CB SWAP1 PUSH2 0x2414 JUMP JUMPDEST PUSH1 0x40 MLOAD DUP1 SWAP2 SUB SWAP1 REVERT JUMPDEST PUSH2 0x13DE PUSH1 0x0 PUSH2 0x1AAA JUMP JUMPDEST JUMP JUMPDEST PUSH2 0x13E8 PUSH2 0x19C3 JUMP JUMPDEST PUSH20 0xFFFFFFFFFFFFFFFFFFFFFFFFFFFFFFFFFFFFFFFF AND PUSH2 0x1406 PUSH2 0x1562 JUMP JUMPDEST PUSH20 0xFFFFFFFFFFFFFFFFFFFFFFFFFFFFFFFFFFFFFFFF AND EQ PUSH2 0x145C JUMPI PUSH1 0x40 MLOAD PUSH32 0x8C379A000000000000000000000000000000000000000000000000000000000 DUP2 MSTORE PUSH1 0x4 ADD PUSH2 0x1453 SWAP1 PUSH2 0x2414 JUMP JUMPDEST PUSH1 0x40 MLOAD DUP1 SWAP2 SUB SWAP1 REVERT JUMPDEST DUP1 PUSH1 0x4 PUSH1 0x0 PUSH2 0x100 EXP DUP2 SLOAD DUP2 PUSH20 0xFFFFFFFFFFFFFFFFFFFFFFFFFFFFFFFFFFFFFFFF MUL NOT AND SWAP1 DUP4 PUSH20 0xFFFFFFFFFFFFFFFFFFFFFFFFFFFFFFFFFFFFFFFF AND MUL OR SWAP1 SSTORE POP POP JUMP JUMPDEST PUSH1 0x5 PUSH1 0x0 SWAP1 SLOAD SWAP1 PUSH2 0x100 EXP SWAP1 DIV PUSH20 0xFFFFFFFFFFFFFFFFFFFFFFFFFFFFFFFFFFFFFFFF AND DUP2 JUMP JUMPDEST PUSH2 0x14CE PUSH2 0x19C3 JUMP JUMPDEST PUSH20 0xFFFFFFFFFFFFFFFFFFFFFFFFFFFFFFFFFFFFFFFF AND PUSH2 0x14EC PUSH2 0x1562 JUMP JUMPDEST PUSH20 0xFFFFFFFFFFFFFFFFFFFFFFFFFFFFFFFFFFFFFFFF AND EQ PUSH2 0x1542 JUMPI PUSH1 0x40 MLOAD PUSH32 0x8C379A000000000000000000000000000000000000000000000000000000000 DUP2 MSTORE PUSH1 0x4 ADD PUSH2 0x1539 SWAP1 PUSH2 0x2414 JUMP JUMPDEST PUSH1 0x40 MLOAD DUP1 SWAP2 SUB SWAP1 REVERT JUMPDEST DUP1 PUSH1 0x5 PUSH1 0x14 PUSH2 0x100 EXP DUP2 SLOAD DUP2 PUSH2 0xFFFF MUL NOT AND SWAP1 DUP4 PUSH2 0xFFFF AND MUL OR SWAP1 SSTORE POP POP JUMP JUMPDEST PUSH1 0x0 DUP1 PUSH1 0x0 SWAP1 SLOAD SWAP1 PUSH2 0x100 EXP SWAP1 DIV PUSH20 0xFFFFFFFFFFFFFFFFFFFFFFFFFFFFFFFFFFFFFFFF AND SWAP1 POP SWAP1 JUMP JUMPDEST PUSH1 0x7 SLOAD DUP2 JUMP JUMPDEST PUSH1 0x5 PUSH1 0x14 SWAP1 SLOAD SWAP1 PUSH2 0x100 EXP SWAP1 DIV PUSH2 0xFFFF AND DUP2 JUMP JUMPDEST PUSH1 0x60 PUSH1 0x0 PUSH1 0x2 DUP4 MLOAD PUSH2 0x15B7 SWAP2 SWAP1 PUSH2 0x2608 JUMP JUMPDEST PUSH8 0xFFFFFFFFFFFFFFFF DUP2 GT ISZERO PUSH2 0x15D0 JUMPI PUSH2 0x15CF PUSH2 0x291B JUMP JUMPDEST JUMPDEST PUSH1 0x40 MLOAD SWAP1 DUP1 DUP3 MSTORE DUP1 PUSH1 0x20 MUL PUSH1 0x20 ADD DUP3 ADD PUSH1 0x40 MSTORE DUP1 ISZERO PUSH2 0x1603 JUMPI DUP2 PUSH1 0x20 ADD JUMPDEST PUSH1 0x60 DUP2 MSTORE PUSH1 0x20 ADD SWAP1 PUSH1 0x1 SWAP1 SUB SWAP1 DUP2 PUSH2 0x15EE JUMPI SWAP1 POP JUMPDEST POP SWAP1 POP PUSH1 0x0 JUMPDEST PUSH1 0x2 DUP5 MLOAD PUSH2 0x1617 SWAP2 SWAP1 PUSH2 0x2608 JUMP JUMPDEST DUP2 LT ISZERO PUSH2 0x16CF JUMPI DUP4 PUSH1 0x2 DUP3 PUSH2 0x162C SWAP2 SWAP1 PUSH2 0x2675 JUMP JUMPDEST DUP2 MLOAD DUP2 LT PUSH2 0x163D JUMPI PUSH2 0x163C PUSH2 0x28EC JUMP JUMPDEST JUMPDEST PUSH1 0x20 ADD ADD MLOAD PUSH1 0xF8 SHR PUSH1 0xF8 SHL DUP5 PUSH1 0x1 PUSH1 0x2 DUP5 PUSH2 0x1658 SWAP2 SWAP1 PUSH2 0x2675 JUMP JUMPDEST PUSH2 0x1662 SWAP2 SWAP1 PUSH2 0x25B2 JUMP JUMPDEST DUP2 MLOAD DUP2 LT PUSH2 0x1673 JUMPI PUSH2 0x1672 PUSH2 0x28EC JUMP JUMPDEST JUMPDEST PUSH1 0x20 ADD ADD MLOAD PUSH1 0xF8 SHR PUSH1 0xF8 SHL PUSH1 0x40 MLOAD PUSH1 0x20 ADD PUSH2 0x168F SWAP3 SWAP2 SWAP1 PUSH2 0x2297 JUMP JUMPDEST PUSH1 0x40 MLOAD PUSH1 0x20 DUP2 DUP4 SUB SUB DUP2 MSTORE SWAP1 PUSH1 0x40 MSTORE DUP3 DUP3 DUP2 MLOAD DUP2 LT PUSH2 0x16B1 JUMPI PUSH2 0x16B0 PUSH2 0x28EC JUMP JUMPDEST JUMPDEST PUSH1 0x20 MUL PUSH1 0x20 ADD ADD DUP2 SWAP1 MSTORE POP DUP1 DUP1 PUSH2 0x16C7 SWAP1 PUSH2 0x280A JUMP JUMPDEST SWAP2 POP POP PUSH2 0x1609 JUMP JUMPDEST POP DUP1 SWAP2 POP POP SWAP2 SWAP1 POP JUMP JUMPDEST PUSH1 0x3 PUSH1 0x0 SWAP1 SLOAD SWAP1 PUSH2 0x100 EXP SWAP1 DIV PUSH20 0xFFFFFFFFFFFFFFFFFFFFFFFFFFFFFFFFFFFFFFFF AND DUP2 JUMP JUMPDEST PUSH1 0x2 PUSH1 0x0 SWAP1 SLOAD SWAP1 PUSH2 0x100 EXP SWAP1 DIV PUSH20 0xFFFFFFFFFFFFFFFFFFFFFFFFFFFFFFFFFFFFFFFF AND DUP2 JUMP JUMPDEST PUSH2 0x172D PUSH2 0x19C3 JUMP JUMPDEST PUSH20 0xFFFFFFFFFFFFFFFFFFFFFFFFFFFFFFFFFFFFFFFF AND PUSH2 0x174B PUSH2 0x1562 JUMP JUMPDEST PUSH20 0xFFFFFFFFFFFFFFFFFFFFFFFFFFFFFFFFFFFFFFFF AND EQ PUSH2 0x17A1 JUMPI PUSH1 0x40 MLOAD PUSH32 0x8C379A000000000000000000000000000000000000000000000000000000000 DUP2 MSTORE PUSH1 0x4 ADD PUSH2 0x1798 SWAP1 PUSH2 0x2414 JUMP JUMPDEST PUSH1 0x40 MLOAD DUP1 SWAP2 SUB SWAP1 REVERT JUMPDEST DUP1 PUSH1 0x1 PUSH1 0x0 PUSH2 0x100 EXP DUP2 SLOAD DUP2 PUSH20 0xFFFFFFFFFFFFFFFFFFFFFFFFFFFFFFFFFFFFFFFF MUL NOT AND SWAP1 DUP4 PUSH20 0xFFFFFFFFFFFFFFFFFFFFFFFFFFFFFFFFFFFFFFFF AND MUL OR SWAP1 SSTORE POP POP JUMP JUMPDEST PUSH2 0x17ED PUSH2 0x19C3 JUMP JUMPDEST PUSH20 0xFFFFFFFFFFFFFFFFFFFFFFFFFFFFFFFFFFFFFFFF AND PUSH2 0x180B PUSH2 0x1562 JUMP JUMPDEST PUSH20 0xFFFFFFFFFFFFFFFFFFFFFFFFFFFFFFFFFFFFFFFF AND EQ PUSH2 0x1861 JUMPI PUSH1 0x40 MLOAD PUSH32 0x8C379A000000000000000000000000000000000000000000000000000000000 DUP2 MSTORE PUSH1 0x4 ADD PUSH2 0x1858 SWAP1 PUSH2 0x2414 JUMP JUMPDEST PUSH1 0x40 MLOAD DUP1 SWAP2 SUB SWAP1 REVERT JUMPDEST PUSH1 0x0 PUSH20 0xFFFFFFFFFFFFFFFFFFFFFFFFFFFFFFFFFFFFFFFF AND DUP2 PUSH20 0xFFFFFFFFFFFFFFFFFFFFFFFFFFFFFFFFFFFFFFFF AND EQ ISZERO PUSH2 0x18D1 JUMPI PUSH1 0x40 MLOAD PUSH32 0x8C379A000000000000000000000000000000000000000000000000000000000 DUP2 MSTORE PUSH1 0x4 ADD PUSH2 0x18C8 SWAP1 PUSH2 0x23F4 JUMP JUMPDEST PUSH1 0x40 MLOAD DUP1 SWAP2 SUB SWAP1 REVERT JUMPDEST PUSH2 0x18DA DUP2 PUSH2 0x1AAA JUMP JUMPDEST POP JUMP JUMPDEST PUSH1 0x4 PUSH1 0x0 SWAP1 SLOAD SWAP1 PUSH2 0x100 EXP SWAP1 DIV PUSH20 0xFFFFFFFFFFFFFFFFFFFFFFFFFFFFFFFFFFFFFFFF AND DUP2 JUMP JUMPDEST PUSH2 0x190B PUSH2 0x19C3 JUMP JUMPDEST PUSH20 0xFFFFFFFFFFFFFFFFFFFFFFFFFFFFFFFFFFFFFFFF AND PUSH2 0x1929 PUSH2 0x1562 JUMP JUMPDEST PUSH20 0xFFFFFFFFFFFFFFFFFFFFFFFFFFFFFFFFFFFFFFFF AND EQ PUSH2 0x197F JUMPI PUSH1 0x40 MLOAD PUSH32 0x8C379A000000000000000000000000000000000000000000000000000000000 DUP2 MSTORE PUSH1 0x4 ADD PUSH2 0x1976 SWAP1 PUSH2 0x2414 JUMP JUMPDEST PUSH1 0x40 MLOAD DUP1 SWAP2 SUB SWAP1 REVERT JUMPDEST DUP1 PUSH1 0x5 PUSH1 0x0 PUSH2 0x100 EXP DUP2 SLOAD DUP2 PUSH20 0xFFFFFFFFFFFFFFFFFFFFFFFFFFFFFFFFFFFFFFFF MUL NOT AND SWAP1 DUP4 PUSH20 0xFFFFFFFFFFFFFFFFFFFFFFFFFFFFFFFFFFFFFFFF AND MUL OR SWAP1 SSTORE POP POP JUMP JUMPDEST PUSH1 0x0 CALLER SWAP1 POP SWAP1 JUMP JUMPDEST PUSH1 0x60 PUSH2 0x19D5 PUSH2 0x1B6E JUMP JUMPDEST PUSH1 0x1 PUSH1 0x0 SWAP1 SLOAD SWAP1 PUSH2 0x100 EXP SWAP1 DIV PUSH20 0xFFFFFFFFFFFFFFFFFFFFFFFFFFFFFFFFFFFFFFFF AND PUSH20 0xFFFFFFFFFFFFFFFFFFFFFFFFFFFFFFFFFFFFFFFF AND PUSH4 0xCC33C875 DUP5 PUSH1 0x40 MLOAD DUP3 PUSH4 0xFFFFFFFF AND PUSH1 0xE0 SHL DUP2 MSTORE PUSH1 0x4 ADD PUSH2 0x1A30 SWAP2 SWAP1 PUSH2 0x24AF JUMP JUMPDEST PUSH1 0x0 PUSH1 0x40 MLOAD DUP1 DUP4 SUB DUP2 DUP7 DUP1 EXTCODESIZE ISZERO DUP1 ISZERO PUSH2 0x1A48 JUMPI PUSH1 0x0 DUP1 REVERT JUMPDEST POP GAS STATICCALL ISZERO DUP1 ISZERO PUSH2 0x1A5C JUMPI RETURNDATASIZE PUSH1 0x0 DUP1 RETURNDATACOPY RETURNDATASIZE PUSH1 0x0 REVERT JUMPDEST POP POP POP POP PUSH1 0x40 MLOAD RETURNDATASIZE PUSH1 0x0 DUP3 RETURNDATACOPY RETURNDATASIZE PUSH1 0x1F NOT PUSH1 0x1F DUP3 ADD AND DUP3 ADD DUP1 PUSH1 0x40 MSTORE POP DUP2 ADD SWAP1 PUSH2 0x1A85 SWAP2 SWAP1 PUSH2 0x1F05 JUMP JUMPDEST DUP3 PUSH1 0x0 ADD DUP4 PUSH1 0x20 ADD DUP3 DUP2 MSTORE POP DUP3 SWAP1 MSTORE POP POP DUP1 PUSH1 0x0 ADD MLOAD SWAP2 POP POP SWAP2 SWAP1 POP JUMP JUMPDEST PUSH1 0x60 SWAP2 SWAP1 POP JUMP JUMPDEST PUSH1 0x0 DUP1 PUSH1 0x0 SWAP1 SLOAD SWAP1 PUSH2 0x100 EXP SWAP1 DIV PUSH20 0xFFFFFFFFFFFFFFFFFFFFFFFFFFFFFFFFFFFFFFFF AND SWAP1 POP DUP2 PUSH1 0x0 DUP1 PUSH2 0x100 EXP DUP2 SLOAD DUP2 PUSH20 0xFFFFFFFFFFFFFFFFFFFFFFFFFFFFFFFFFFFFFFFF MUL NOT AND SWAP1 DUP4 PUSH20 0xFFFFFFFFFFFFFFFFFFFFFFFFFFFFFFFFFFFFFFFF AND MUL OR SWAP1 SSTORE POP DUP2 PUSH20 0xFFFFFFFFFFFFFFFFFFFFFFFFFFFFFFFFFFFFFFFF AND DUP2 PUSH20 0xFFFFFFFFFFFFFFFFFFFFFFFFFFFFFFFFFFFFFFFF AND PUSH32 0x8BE0079C531659141344CD1FD0A4F28419497F9722A3DAAFE3B4186F6B6457E0 PUSH1 0x40 MLOAD PUSH1 0x40 MLOAD DUP1 SWAP2 SUB SWAP1 LOG3 POP POP JUMP JUMPDEST PUSH1 0x40 MLOAD DUP1 PUSH1 0x40 ADD PUSH1 0x40 MSTORE DUP1 PUSH1 0x60 DUP2 MSTORE PUSH1 0x20 ADD PUSH1 0x0 DUP2 MSTORE POP SWAP1 JUMP JUMPDEST PUSH1 0x0 PUSH2 0x1B9B PUSH2 0x1B96 DUP5 PUSH2 0x24EF JUMP JUMPDEST PUSH2 0x24CA JUMP JUMPDEST SWAP1 POP DUP1 DUP4 DUP3 MSTORE PUSH1 0x20 DUP3 ADD SWAP1 POP DUP3 DUP6 PUSH1 0x20 DUP7 MUL DUP3 ADD GT ISZERO PUSH2 0x1BBE JUMPI PUSH2 0x1BBD PUSH2 0x294F JUMP JUMPDEST JUMPDEST PUSH1 0x0 JUMPDEST DUP6 DUP2 LT ISZERO PUSH2 0x1BEE JUMPI DUP2 PUSH2 0x1BD4 DUP9 DUP3 PUSH2 0x1D6F JUMP JUMPDEST DUP5 MSTORE PUSH1 0x20 DUP5 ADD SWAP4 POP PUSH1 0x20 DUP4 ADD SWAP3 POP POP PUSH1 0x1 DUP2 ADD SWAP1 POP PUSH2 0x1BC1 JUMP JUMPDEST POP POP POP SWAP4 SWAP3 POP POP POP JUMP JUMPDEST PUSH1 0x0 PUSH2 0x1C0B PUSH2 0x1C06 DUP5 PUSH2 0x251B JUMP JUMPDEST PUSH2 0x24CA JUMP JUMPDEST SWAP1 POP DUP3 DUP2 MSTORE PUSH1 0x20 DUP2 ADD DUP5 DUP5 DUP5 ADD GT ISZERO PUSH2 0x1C27 JUMPI PUSH2 0x1C26 PUSH2 0x2954 JUMP JUMPDEST JUMPDEST PUSH2 0x1C32 DUP5 DUP3 DUP6 PUSH2 0x2797 JUMP JUMPDEST POP SWAP4 SWAP3 POP POP POP JUMP JUMPDEST PUSH1 0x0 PUSH2 0x1C4D PUSH2 0x1C48 DUP5 PUSH2 0x251B JUMP JUMPDEST PUSH2 0x24CA JUMP JUMPDEST SWAP1 POP DUP3 DUP2 MSTORE PUSH1 0x20 DUP2 ADD DUP5 DUP5 DUP5 ADD GT ISZERO PUSH2 0x1C69 JUMPI PUSH2 0x1C68 PUSH2 0x2954 JUMP JUMPDEST JUMPDEST PUSH2 0x1C74 DUP5 DUP3 DUP6 PUSH2 0x27A6 JUMP JUMPDEST POP SWAP4 SWAP3 POP POP POP JUMP JUMPDEST PUSH1 0x0 DUP2 CALLDATALOAD SWAP1 POP PUSH2 0x1C8B DUP2 PUSH2 0x2B02 JUMP JUMPDEST SWAP3 SWAP2 POP POP JUMP JUMPDEST PUSH1 0x0 DUP2 MLOAD SWAP1 POP PUSH2 0x1CA0 DUP2 PUSH2 0x2B02 JUMP JUMPDEST SWAP3 SWAP2 POP POP JUMP JUMPDEST PUSH1 0x0 DUP3 PUSH1 0x1F DUP4 ADD SLT PUSH2 0x1CBB JUMPI PUSH2 0x1CBA PUSH2 0x294A JUMP JUMPDEST JUMPDEST DUP2 CALLDATALOAD PUSH2 0x1CCB DUP5 DUP3 PUSH1 0x20 DUP7 ADD PUSH2 0x1B88 JUMP JUMPDEST SWAP2 POP POP SWAP3 SWAP2 POP POP JUMP JUMPDEST PUSH1 0x0 DUP2 MLOAD SWAP1 POP PUSH2 0x1CE3 DUP2 PUSH2 0x2B19 JUMP JUMPDEST SWAP3 SWAP2 POP POP JUMP JUMPDEST PUSH1 0x0 DUP3 PUSH1 0x1F DUP4 ADD SLT PUSH2 0x1CFE JUMPI PUSH2 0x1CFD PUSH2 0x294A JUMP JUMPDEST JUMPDEST DUP2 CALLDATALOAD PUSH2 0x1D0E DUP5 DUP3 PUSH1 0x20 DUP7 ADD PUSH2 0x1BF8 JUMP JUMPDEST SWAP2 POP POP SWAP3 SWAP2 POP POP JUMP JUMPDEST PUSH1 0x0 DUP3 PUSH1 0x1F DUP4 ADD SLT PUSH2 0x1D2C JUMPI PUSH2 0x1D2B PUSH2 0x294A JUMP JUMPDEST JUMPDEST DUP2 MLOAD PUSH2 0x1D3C DUP5 DUP3 PUSH1 0x20 DUP7 ADD PUSH2 0x1C3A JUMP JUMPDEST SWAP2 POP POP SWAP3 SWAP2 POP POP JUMP JUMPDEST PUSH1 0x0 DUP2 CALLDATALOAD SWAP1 POP PUSH2 0x1D54 DUP2 PUSH2 0x2B30 JUMP JUMPDEST SWAP3 SWAP2 POP POP JUMP JUMPDEST PUSH1 0x0 DUP2 MLOAD SWAP1 POP PUSH2 0x1D69 DUP2 PUSH2 0x2B30 JUMP JUMPDEST SWAP3 SWAP2 POP POP JUMP JUMPDEST PUSH1 0x0 DUP2 CALLDATALOAD SWAP1 POP PUSH2 0x1D7E DUP2 PUSH2 0x2B47 JUMP JUMPDEST SWAP3 SWAP2 POP POP JUMP JUMPDEST PUSH1 0x0 DUP2 MLOAD SWAP1 POP PUSH2 0x1D93 DUP2 PUSH2 0x2B47 JUMP JUMPDEST SWAP3 SWAP2 POP POP JUMP JUMPDEST PUSH1 0x0 PUSH1 0x20 DUP3 DUP5 SUB SLT ISZERO PUSH2 0x1DAF JUMPI PUSH2 0x1DAE PUSH2 0x295E JUMP JUMPDEST JUMPDEST PUSH1 0x0 PUSH2 0x1DBD DUP5 DUP3 DUP6 ADD PUSH2 0x1C7C JUMP JUMPDEST SWAP2 POP POP SWAP3 SWAP2 POP POP JUMP JUMPDEST PUSH1 0x0 PUSH1 0x20 DUP3 DUP5 SUB SLT ISZERO PUSH2 0x1DDC JUMPI PUSH2 0x1DDB PUSH2 0x295E JUMP JUMPDEST JUMPDEST PUSH1 0x0 PUSH2 0x1DEA DUP5 DUP3 DUP6 ADD PUSH2 0x1C91 JUMP JUMPDEST SWAP2 POP POP SWAP3 SWAP2 POP POP JUMP JUMPDEST PUSH1 0x0 DUP1 PUSH1 0x0 PUSH1 0x60 DUP5 DUP7 SUB SLT ISZERO PUSH2 0x1E0C JUMPI PUSH2 0x1E0B PUSH2 0x295E JUMP JUMPDEST JUMPDEST PUSH1 0x0 PUSH2 0x1E1A DUP7 DUP3 DUP8 ADD PUSH2 0x1C7C JUMP JUMPDEST SWAP4 POP POP PUSH1 0x20 PUSH2 0x1E2B DUP7 DUP3 DUP8 ADD PUSH2 0x1C7C JUMP JUMPDEST SWAP3 POP POP PUSH1 0x40 PUSH2 0x1E3C DUP7 DUP3 DUP8 ADD PUSH2 0x1D6F JUMP JUMPDEST SWAP2 POP POP SWAP3 POP SWAP3 POP SWAP3 JUMP JUMPDEST PUSH1 0x0 PUSH1 0x20 DUP3 DUP5 SUB SLT ISZERO PUSH2 0x1E5C JUMPI PUSH2 0x1E5B PUSH2 0x295E JUMP JUMPDEST JUMPDEST PUSH1 0x0 DUP3 ADD CALLDATALOAD PUSH8 0xFFFFFFFFFFFFFFFF DUP2 GT ISZERO PUSH2 0x1E7A JUMPI PUSH2 0x1E79 PUSH2 0x2959 JUMP JUMPDEST JUMPDEST PUSH2 0x1E86 DUP5 DUP3 DUP6 ADD PUSH2 0x1CA6 JUMP JUMPDEST SWAP2 POP POP SWAP3 SWAP2 POP POP JUMP JUMPDEST PUSH1 0x0 PUSH1 0x20 DUP3 DUP5 SUB SLT ISZERO PUSH2 0x1EA5 JUMPI PUSH2 0x1EA4 PUSH2 0x295E JUMP JUMPDEST JUMPDEST PUSH1 0x0 PUSH2 0x1EB3 DUP5 DUP3 DUP6 ADD PUSH2 0x1CD4 JUMP JUMPDEST SWAP2 POP POP SWAP3 SWAP2 POP POP JUMP JUMPDEST PUSH1 0x0 PUSH1 0x20 DUP3 DUP5 SUB SLT ISZERO PUSH2 0x1ED2 JUMPI PUSH2 0x1ED1 PUSH2 0x295E JUMP JUMPDEST JUMPDEST PUSH1 0x0 DUP3 ADD CALLDATALOAD PUSH8 0xFFFFFFFFFFFFFFFF DUP2 GT ISZERO PUSH2 0x1EF0 JUMPI PUSH2 0x1EEF PUSH2 0x2959 JUMP JUMPDEST JUMPDEST PUSH2 0x1EFC DUP5 DUP3 DUP6 ADD PUSH2 0x1CE9 JUMP JUMPDEST SWAP2 POP POP SWAP3 SWAP2 POP POP JUMP JUMPDEST PUSH1 0x0 DUP1 PUSH1 0x40 DUP4 DUP6 SUB SLT ISZERO PUSH2 0x1F1C JUMPI PUSH2 0x1F1B PUSH2 0x295E JUMP JUMPDEST JUMPDEST PUSH1 0x0 DUP4 ADD MLOAD PUSH8 0xFFFFFFFFFFFFFFFF DUP2 GT ISZERO PUSH2 0x1F3A JUMPI PUSH2 0x1F39 PUSH2 0x2959 JUMP JUMPDEST JUMPDEST PUSH2 0x1F46 DUP6 DUP3 DUP7 ADD PUSH2 0x1D17 JUMP JUMPDEST SWAP3 POP POP PUSH1 0x20 PUSH2 0x1F57 DUP6 DUP3 DUP7 ADD PUSH2 0x1D84 JUMP JUMPDEST SWAP2 POP POP SWAP3 POP SWAP3 SWAP1 POP JUMP JUMPDEST PUSH1 0x0 PUSH1 0x20 DUP3 DUP5 SUB SLT ISZERO PUSH2 0x1F77 JUMPI PUSH2 0x1F76 PUSH2 0x295E JUMP JUMPDEST JUMPDEST PUSH1 0x0 PUSH2 0x1F85 DUP5 DUP3 DUP6 ADD PUSH2 0x1D45 JUMP JUMPDEST SWAP2 POP POP SWAP3 SWAP2 POP POP JUMP JUMPDEST PUSH1 0x0 PUSH1 0x20 DUP3 DUP5 SUB SLT ISZERO PUSH2 0x1FA4 JUMPI PUSH2 0x1FA3 PUSH2 0x295E JUMP JUMPDEST JUMPDEST PUSH1 0x0 PUSH2 0x1FB2 DUP5 DUP3 DUP6 ADD PUSH2 0x1D5A JUMP JUMPDEST SWAP2 POP POP SWAP3 SWAP2 POP POP JUMP JUMPDEST PUSH1 0x0 PUSH1 0x20 DUP3 DUP5 SUB SLT ISZERO PUSH2 0x1FD1 JUMPI PUSH2 0x1FD0 PUSH2 0x295E JUMP JUMPDEST JUMPDEST PUSH1 0x0 PUSH2 0x1FDF DUP5 DUP3 DUP6 ADD PUSH2 0x1D6F JUMP JUMPDEST SWAP2 POP POP SWAP3 SWAP2 POP POP JUMP JUMPDEST PUSH1 0x0 PUSH1 0x20 DUP3 DUP5 SUB SLT ISZERO PUSH2 0x1FFE JUMPI PUSH2 0x1FFD PUSH2 0x295E JUMP JUMPDEST JUMPDEST PUSH1 0x0 PUSH2 0x200C DUP5 DUP3 DUP6 ADD PUSH2 0x1D84 JUMP JUMPDEST SWAP2 POP POP SWAP3 SWAP2 POP POP JUMP JUMPDEST PUSH1 0x0 DUP1 PUSH1 0x0 PUSH1 0x60 DUP5 DUP7 SUB SLT ISZERO PUSH2 0x202E JUMPI PUSH2 0x202D PUSH2 0x295E JUMP JUMPDEST JUMPDEST PUSH1 0x0 PUSH2 0x203C DUP7 DUP3 DUP8 ADD PUSH2 0x1D6F JUMP JUMPDEST SWAP4 POP POP PUSH1 0x20 PUSH2 0x204D DUP7 DUP3 DUP8 ADD PUSH2 0x1D45 JUMP JUMPDEST SWAP3 POP POP PUSH1 0x40 PUSH2 0x205E DUP7 DUP3 DUP8 ADD PUSH2 0x1D45 JUMP JUMPDEST SWAP2 POP POP SWAP3 POP SWAP3 POP SWAP3 JUMP JUMPDEST PUSH1 0x0 PUSH2 0x2074 DUP4 DUP4 PUSH2 0x2135 JUMP JUMPDEST SWAP1 POP SWAP3 SWAP2 POP POP JUMP JUMPDEST PUSH2 0x2085 DUP2 PUSH2 0x2703 JUMP JUMPDEST DUP3 MSTORE POP POP JUMP JUMPDEST PUSH1 0x0 PUSH2 0x2096 DUP3 PUSH2 0x255C JUMP JUMPDEST PUSH2 0x20A0 DUP2 DUP6 PUSH2 0x257F JUMP JUMPDEST SWAP4 POP DUP4 PUSH1 0x20 DUP3 MUL DUP6 ADD PUSH2 0x20B2 DUP6 PUSH2 0x254C JUMP JUMPDEST DUP1 PUSH1 0x0 JUMPDEST DUP6 DUP2 LT ISZERO PUSH2 0x20EE JUMPI DUP5 DUP5 SUB DUP10 MSTORE DUP2 MLOAD PUSH2 0x20CF DUP6 DUP3 PUSH2 0x2068 JUMP JUMPDEST SWAP5 POP PUSH2 0x20DA DUP4 PUSH2 0x2572 JUMP JUMPDEST SWAP3 POP PUSH1 0x20 DUP11 ADD SWAP10 POP POP PUSH1 0x1 DUP2 ADD SWAP1 POP PUSH2 0x20B6 JUMP JUMPDEST POP DUP3 SWAP8 POP DUP8 SWAP6 POP POP POP POP POP POP SWAP3 SWAP2 POP POP JUMP JUMPDEST PUSH2 0x2109 DUP2 PUSH2 0x2715 JUMP JUMPDEST DUP3 MSTORE POP POP JUMP JUMPDEST PUSH2 0x2120 PUSH2 0x211B DUP3 PUSH2 0x2721 JUMP JUMPDEST PUSH2 0x2853 JUMP JUMPDEST DUP3 MSTORE POP POP JUMP JUMPDEST PUSH2 0x212F DUP2 PUSH2 0x2785 JUMP JUMPDEST DUP3 MSTORE POP POP JUMP JUMPDEST PUSH1 0x0 PUSH2 0x2140 DUP3 PUSH2 0x2567 JUMP JUMPDEST PUSH2 0x214A DUP2 DUP6 PUSH2 0x2590 JUMP JUMPDEST SWAP4 POP PUSH2 0x215A DUP2 DUP6 PUSH1 0x20 DUP7 ADD PUSH2 0x27A6 JUMP JUMPDEST PUSH2 0x2163 DUP2 PUSH2 0x2963 JUMP JUMPDEST DUP5 ADD SWAP2 POP POP SWAP3 SWAP2 POP POP JUMP JUMPDEST PUSH1 0x0 PUSH2 0x2179 DUP3 PUSH2 0x2567 JUMP JUMPDEST PUSH2 0x2183 DUP2 DUP6 PUSH2 0x25A1 JUMP JUMPDEST SWAP4 POP PUSH2 0x2193 DUP2 DUP6 PUSH1 0x20 DUP7 ADD PUSH2 0x27A6 JUMP JUMPDEST PUSH2 0x219C DUP2 PUSH2 0x2963 JUMP JUMPDEST DUP5 ADD SWAP2 POP POP SWAP3 SWAP2 POP POP JUMP JUMPDEST PUSH1 0x0 PUSH2 0x21B4 PUSH1 0x23 DUP4 PUSH2 0x25A1 JUMP JUMPDEST SWAP2 POP PUSH2 0x21BF DUP3 PUSH2 0x2974 JUMP JUMPDEST PUSH1 0x40 DUP3 ADD SWAP1 POP SWAP2 SWAP1 POP JUMP JUMPDEST PUSH1 0x0 PUSH2 0x21D7 PUSH1 0x26 DUP4 PUSH2 0x25A1 JUMP JUMPDEST SWAP2 POP PUSH2 0x21E2 DUP3 PUSH2 0x29C3 JUMP JUMPDEST PUSH1 0x40 DUP3 ADD SWAP1 POP SWAP2 SWAP1 POP JUMP JUMPDEST PUSH1 0x0 PUSH2 0x21FA PUSH1 0x20 DUP4 PUSH2 0x25A1 JUMP JUMPDEST SWAP2 POP PUSH2 0x2205 DUP3 PUSH2 0x2A12 JUMP JUMPDEST PUSH1 0x20 DUP3 ADD SWAP1 POP SWAP2 SWAP1 POP JUMP JUMPDEST PUSH1 0x0 PUSH2 0x221D PUSH1 0x12 DUP4 PUSH2 0x25A1 JUMP JUMPDEST SWAP2 POP PUSH2 0x2228 DUP3 PUSH2 0x2A3B JUMP JUMPDEST PUSH1 0x20 DUP3 ADD SWAP1 POP SWAP2 SWAP1 POP JUMP JUMPDEST PUSH1 0x0 PUSH2 0x2240 PUSH1 0x22 DUP4 PUSH2 0x25A1 JUMP JUMPDEST SWAP2 POP PUSH2 0x224B DUP3 PUSH2 0x2A64 JUMP JUMPDEST PUSH1 0x40 DUP3 ADD SWAP1 POP SWAP2 SWAP1 POP JUMP JUMPDEST PUSH1 0x0 PUSH2 0x2263 PUSH1 0x26 DUP4 PUSH2 0x25A1 JUMP JUMPDEST SWAP2 POP PUSH2 0x226E DUP3 PUSH2 0x2AB3 JUMP JUMPDEST PUSH1 0x40 DUP3 ADD SWAP1 POP SWAP2 SWAP1 POP JUMP JUMPDEST PUSH2 0x2282 DUP2 PUSH2 0x274D JUMP JUMPDEST DUP3 MSTORE POP POP JUMP JUMPDEST PUSH2 0x2291 DUP2 PUSH2 0x277B JUMP JUMPDEST DUP3 MSTORE POP POP JUMP JUMPDEST PUSH1 0x0 PUSH2 0x22A3 DUP3 DUP6 PUSH2 0x210F JUMP JUMPDEST PUSH1 0x1 DUP3 ADD SWAP2 POP PUSH2 0x22B3 DUP3 DUP5 PUSH2 0x210F JUMP JUMPDEST PUSH1 0x1 DUP3 ADD SWAP2 POP DUP2 SWAP1 POP SWAP4 SWAP3 POP POP POP JUMP JUMPDEST PUSH1 0x0 PUSH1 0x20 DUP3 ADD SWAP1 POP PUSH2 0x22D8 PUSH1 0x0 DUP4 ADD DUP5 PUSH2 0x207C JUMP JUMPDEST SWAP3 SWAP2 POP POP JUMP JUMPDEST PUSH1 0x0 PUSH1 0x60 DUP3 ADD SWAP1 POP PUSH2 0x22F3 PUSH1 0x0 DUP4 ADD DUP7 PUSH2 0x207C JUMP JUMPDEST PUSH2 0x2300 PUSH1 0x20 DUP4 ADD DUP6 PUSH2 0x207C JUMP JUMPDEST PUSH2 0x230D PUSH1 0x40 DUP4 ADD DUP5 PUSH2 0x2288 JUMP JUMPDEST SWAP5 SWAP4 POP POP POP POP JUMP JUMPDEST PUSH1 0x0 PUSH1 0x40 DUP3 ADD SWAP1 POP PUSH2 0x232A PUSH1 0x0 DUP4 ADD DUP6 PUSH2 0x207C JUMP JUMPDEST DUP2 DUP2 SUB PUSH1 0x20 DUP4 ADD MSTORE PUSH2 0x233C DUP2 DUP5 PUSH2 0x216E JUMP JUMPDEST SWAP1 POP SWAP4 SWAP3 POP POP POP JUMP JUMPDEST PUSH1 0x0 PUSH1 0x40 DUP3 ADD SWAP1 POP PUSH2 0x235A PUSH1 0x0 DUP4 ADD DUP6 PUSH2 0x207C JUMP JUMPDEST PUSH2 0x2367 PUSH1 0x20 DUP4 ADD DUP5 PUSH2 0x2288 JUMP JUMPDEST SWAP4 SWAP3 POP POP POP JUMP JUMPDEST PUSH1 0x0 PUSH1 0x20 DUP3 ADD SWAP1 POP DUP2 DUP2 SUB PUSH1 0x0 DUP4 ADD MSTORE PUSH2 0x2388 DUP2 DUP5 PUSH2 0x208B JUMP JUMPDEST SWAP1 POP SWAP3 SWAP2 POP POP JUMP JUMPDEST PUSH1 0x0 PUSH1 0x20 DUP3 ADD SWAP1 POP PUSH2 0x23A5 PUSH1 0x0 DUP4 ADD DUP5 PUSH2 0x2100 JUMP JUMPDEST SWAP3 SWAP2 POP POP JUMP JUMPDEST PUSH1 0x0 PUSH1 0x40 DUP3 ADD SWAP1 POP PUSH2 0x23C0 PUSH1 0x0 DUP4 ADD DUP6 PUSH2 0x2126 JUMP JUMPDEST PUSH2 0x23CD PUSH1 0x20 DUP4 ADD DUP5 PUSH2 0x2279 JUMP JUMPDEST SWAP4 SWAP3 POP POP POP JUMP JUMPDEST PUSH1 0x0 PUSH1 0x20 DUP3 ADD SWAP1 POP DUP2 DUP2 SUB PUSH1 0x0 DUP4 ADD MSTORE PUSH2 0x23ED DUP2 PUSH2 0x21A7 JUMP JUMPDEST SWAP1 POP SWAP2 SWAP1 POP JUMP JUMPDEST PUSH1 0x0 PUSH1 0x20 DUP3 ADD SWAP1 POP DUP2 DUP2 SUB PUSH1 0x0 DUP4 ADD MSTORE PUSH2 0x240D DUP2 PUSH2 0x21CA JUMP JUMPDEST SWAP1 POP SWAP2 SWAP1 POP JUMP JUMPDEST PUSH1 0x0 PUSH1 0x20 DUP3 ADD SWAP1 POP DUP2 DUP2 SUB PUSH1 0x0 DUP4 ADD MSTORE PUSH2 0x242D DUP2 PUSH2 0x21ED JUMP JUMPDEST SWAP1 POP SWAP2 SWAP1 POP JUMP JUMPDEST PUSH1 0x0 PUSH1 0x20 DUP3 ADD SWAP1 POP DUP2 DUP2 SUB PUSH1 0x0 DUP4 ADD MSTORE PUSH2 0x244D DUP2 PUSH2 0x2210 JUMP JUMPDEST SWAP1 POP SWAP2 SWAP1 POP JUMP JUMPDEST PUSH1 0x0 PUSH1 0x20 DUP3 ADD SWAP1 POP DUP2 DUP2 SUB PUSH1 0x0 DUP4 ADD MSTORE PUSH2 0x246D DUP2 PUSH2 0x2233 JUMP JUMPDEST SWAP1 POP SWAP2 SWAP1 POP JUMP JUMPDEST PUSH1 0x0 PUSH1 0x20 DUP3 ADD SWAP1 POP DUP2 DUP2 SUB PUSH1 0x0 DUP4 ADD MSTORE PUSH2 0x248D DUP2 PUSH2 0x2256 JUMP JUMPDEST SWAP1 POP SWAP2 SWAP1 POP JUMP JUMPDEST PUSH1 0x0 PUSH1 0x20 DUP3 ADD SWAP1 POP PUSH2 0x24A9 PUSH1 0x0 DUP4 ADD DUP5 PUSH2 0x2279 JUMP JUMPDEST SWAP3 SWAP2 POP POP JUMP JUMPDEST PUSH1 0x0 PUSH1 0x20 DUP3 ADD SWAP1 POP PUSH2 0x24C4 PUSH1 0x0 DUP4 ADD DUP5 PUSH2 0x2288 JUMP JUMPDEST SWAP3 SWAP2 POP POP JUMP JUMPDEST PUSH1 0x0 PUSH2 0x24D4 PUSH2 0x24E5 JUMP JUMPDEST SWAP1 POP PUSH2 0x24E0 DUP3 DUP3 PUSH2 0x27D9 JUMP JUMPDEST SWAP2 SWAP1 POP JUMP JUMPDEST PUSH1 0x0 PUSH1 0x40 MLOAD SWAP1 POP SWAP1 JUMP JUMPDEST PUSH1 0x0 PUSH8 0xFFFFFFFFFFFFFFFF DUP3 GT ISZERO PUSH2 0x250A JUMPI PUSH2 0x2509 PUSH2 0x291B JUMP JUMPDEST JUMPDEST PUSH1 0x20 DUP3 MUL SWAP1 POP PUSH1 0x20 DUP2 ADD SWAP1 POP SWAP2 SWAP1 POP JUMP JUMPDEST PUSH1 0x0 PUSH8 0xFFFFFFFFFFFFFFFF DUP3 GT ISZERO PUSH2 0x2536 JUMPI PUSH2 0x2535 PUSH2 0x291B JUMP JUMPDEST JUMPDEST PUSH2 0x253F DUP3 PUSH2 0x2963 JUMP JUMPDEST SWAP1 POP PUSH1 0x20 DUP2 ADD SWAP1 POP SWAP2 SWAP1 POP JUMP JUMPDEST PUSH1 0x0 DUP2 SWAP1 POP PUSH1 0x20 DUP3 ADD SWAP1 POP SWAP2 SWAP1 POP JUMP JUMPDEST PUSH1 0x0 DUP2 MLOAD SWAP1 POP SWAP2 SWAP1 POP JUMP JUMPDEST PUSH1 0x0 DUP2 MLOAD SWAP1 POP SWAP2 SWAP1 POP JUMP JUMPDEST PUSH1 0x0 PUSH1 0x20 DUP3 ADD SWAP1 POP SWAP2 SWAP1 POP JUMP JUMPDEST PUSH1 0x0 DUP3 DUP3 MSTORE PUSH1 0x20 DUP3 ADD SWAP1 POP SWAP3 SWAP2 POP POP JUMP JUMPDEST PUSH1 0x0 DUP3 DUP3 MSTORE PUSH1 0x20 DUP3 ADD SWAP1 POP SWAP3 SWAP2 POP POP JUMP JUMPDEST PUSH1 0x0 DUP3 DUP3 MSTORE PUSH1 0x20 DUP3 ADD SWAP1 POP SWAP3 SWAP2 POP POP JUMP JUMPDEST PUSH1 0x0 PUSH2 0x25BD DUP3 PUSH2 0x277B JUMP JUMPDEST SWAP2 POP PUSH2 0x25C8 DUP4 PUSH2 0x277B JUMP JUMPDEST SWAP3 POP DUP3 PUSH32 0xFFFFFFFFFFFFFFFFFFFFFFFFFFFFFFFFFFFFFFFFFFFFFFFFFFFFFFFFFFFFFFFF SUB DUP3 GT ISZERO PUSH2 0x25FD JUMPI PUSH2 0x25FC PUSH2 0x288E JUMP JUMPDEST JUMPDEST DUP3 DUP3 ADD SWAP1 POP SWAP3 SWAP2 POP POP JUMP JUMPDEST PUSH1 0x0 PUSH2 0x2613 DUP3 PUSH2 0x277B JUMP JUMPDEST SWAP2 POP PUSH2 0x261E DUP4 PUSH2 0x277B JUMP JUMPDEST SWAP3 POP DUP3 PUSH2 0x262E JUMPI PUSH2 0x262D PUSH2 0x28BD JUMP JUMPDEST JUMPDEST DUP3 DUP3 DIV SWAP1 POP SWAP3 SWAP2 POP POP JUMP JUMPDEST PUSH1 0x0 PUSH2 0x2644 DUP3 PUSH2 0x274D JUMP JUMPDEST SWAP2 POP PUSH2 0x264F DUP4 PUSH2 0x274D JUMP JUMPDEST SWAP3 POP DUP2 PUSH2 0xFFFF DIV DUP4 GT DUP3 ISZERO ISZERO AND ISZERO PUSH2 0x266A JUMPI PUSH2 0x2669 PUSH2 0x288E JUMP JUMPDEST JUMPDEST DUP3 DUP3 MUL SWAP1 POP SWAP3 SWAP2 POP POP JUMP JUMPDEST PUSH1 0x0 PUSH2 0x2680 DUP3 PUSH2 0x277B JUMP JUMPDEST SWAP2 POP PUSH2 0x268B DUP4 PUSH2 0x277B JUMP JUMPDEST SWAP3 POP DUP2 PUSH32 0xFFFFFFFFFFFFFFFFFFFFFFFFFFFFFFFFFFFFFFFFFFFFFFFFFFFFFFFFFFFFFFFF DIV DUP4 GT DUP3 ISZERO ISZERO AND ISZERO PUSH2 0x26C4 JUMPI PUSH2 0x26C3 PUSH2 0x288E JUMP JUMPDEST JUMPDEST DUP3 DUP3 MUL SWAP1 POP SWAP3 SWAP2 POP POP JUMP JUMPDEST PUSH1 0x0 PUSH2 0x26DA DUP3 PUSH2 0x277B JUMP JUMPDEST SWAP2 POP PUSH2 0x26E5 DUP4 PUSH2 0x277B JUMP JUMPDEST SWAP3 POP DUP3 DUP3 LT ISZERO PUSH2 0x26F8 JUMPI PUSH2 0x26F7 PUSH2 0x288E JUMP JUMPDEST JUMPDEST DUP3 DUP3 SUB SWAP1 POP SWAP3 SWAP2 POP POP JUMP JUMPDEST PUSH1 0x0 PUSH2 0x270E DUP3 PUSH2 0x275B JUMP JUMPDEST SWAP1 POP SWAP2 SWAP1 POP JUMP JUMPDEST PUSH1 0x0 DUP2 ISZERO ISZERO SWAP1 POP SWAP2 SWAP1 POP JUMP JUMPDEST PUSH1 0x0 PUSH32 0xFF00000000000000000000000000000000000000000000000000000000000000 DUP3 AND SWAP1 POP SWAP2 SWAP1 POP JUMP JUMPDEST PUSH1 0x0 PUSH2 0xFFFF DUP3 AND SWAP1 POP SWAP2 SWAP1 POP JUMP JUMPDEST PUSH1 0x0 PUSH20 0xFFFFFFFFFFFFFFFFFFFFFFFFFFFFFFFFFFFFFFFF DUP3 AND SWAP1 POP SWAP2 SWAP1 POP JUMP JUMPDEST PUSH1 0x0 DUP2 SWAP1 POP SWAP2 SWAP1 POP JUMP JUMPDEST PUSH1 0x0 PUSH2 0x2790 DUP3 PUSH2 0x274D JUMP JUMPDEST SWAP1 POP SWAP2 SWAP1 POP JUMP JUMPDEST DUP3 DUP2 DUP4 CALLDATACOPY PUSH1 0x0 DUP4 DUP4 ADD MSTORE POP POP POP JUMP JUMPDEST PUSH1 0x0 JUMPDEST DUP4 DUP2 LT ISZERO PUSH2 0x27C4 JUMPI DUP1 DUP3 ADD MLOAD DUP2 DUP5 ADD MSTORE PUSH1 0x20 DUP2 ADD SWAP1 POP PUSH2 0x27A9 JUMP JUMPDEST DUP4 DUP2 GT ISZERO PUSH2 0x27D3 JUMPI PUSH1 0x0 DUP5 DUP5 ADD MSTORE JUMPDEST POP POP POP POP JUMP JUMPDEST PUSH2 0x27E2 DUP3 PUSH2 0x2963 JUMP JUMPDEST DUP2 ADD DUP2 DUP2 LT PUSH8 0xFFFFFFFFFFFFFFFF DUP3 GT OR ISZERO PUSH2 0x2801 JUMPI PUSH2 0x2800 PUSH2 0x291B JUMP JUMPDEST JUMPDEST DUP1 PUSH1 0x40 MSTORE POP POP POP JUMP JUMPDEST PUSH1 0x0 PUSH2 0x2815 DUP3 PUSH2 0x277B JUMP JUMPDEST SWAP2 POP PUSH32 0xFFFFFFFFFFFFFFFFFFFFFFFFFFFFFFFFFFFFFFFFFFFFFFFFFFFFFFFFFFFFFFFF DUP3 EQ ISZERO PUSH2 0x2848 JUMPI PUSH2 0x2847 PUSH2 0x288E JUMP JUMPDEST JUMPDEST PUSH1 0x1 DUP3 ADD SWAP1 POP SWAP2 SWAP1 POP JUMP JUMPDEST PUSH1 0x0 DUP2 SWAP1 POP SWAP2 SWAP1 POP JUMP JUMPDEST PUSH1 0x0 PUSH2 0x2868 DUP3 PUSH2 0x277B JUMP JUMPDEST SWAP2 POP PUSH2 0x2873 DUP4 PUSH2 0x277B JUMP JUMPDEST SWAP3 POP DUP3 PUSH2 0x2883 JUMPI PUSH2 0x2882 PUSH2 0x28BD JUMP JUMPDEST JUMPDEST DUP3 DUP3 MOD SWAP1 POP SWAP3 SWAP2 POP POP JUMP JUMPDEST PUSH32 0x4E487B7100000000000000000000000000000000000000000000000000000000 PUSH1 0x0 MSTORE PUSH1 0x11 PUSH1 0x4 MSTORE PUSH1 0x24 PUSH1 0x0 REVERT JUMPDEST PUSH32 0x4E487B7100000000000000000000000000000000000000000000000000000000 PUSH1 0x0 MSTORE PUSH1 0x12 PUSH1 0x4 MSTORE PUSH1 0x24 PUSH1 0x0 REVERT JUMPDEST PUSH32 0x4E487B7100000000000000000000000000000000000000000000000000000000 PUSH1 0x0 MSTORE PUSH1 0x32 PUSH1 0x4 MSTORE PUSH1 0x24 PUSH1 0x0 REVERT JUMPDEST PUSH32 0x4E487B7100000000000000000000000000000000000000000000000000000000 PUSH1 0x0 MSTORE PUSH1 0x41 PUSH1 0x4 MSTORE PUSH1 0x24 PUSH1 0x0 REVERT JUMPDEST PUSH1 0x0 DUP1 REVERT JUMPDEST PUSH1 0x0 DUP1 REVERT JUMPDEST PUSH1 0x0 DUP1 REVERT JUMPDEST PUSH1 0x0 DUP1 REVERT JUMPDEST PUSH1 0x0 DUP1 REVERT JUMPDEST PUSH1 0x0 PUSH1 0x1F NOT PUSH1 0x1F DUP4 ADD AND SWAP1 POP SWAP2 SWAP1 POP JUMP JUMPDEST PUSH32 0x4543494F3A20596F75722062616C616E636520697320696E7375666669636965 PUSH1 0x0 DUP3 ADD MSTORE PUSH32 0x6E742E0000000000000000000000000000000000000000000000000000000000 PUSH1 0x20 DUP3 ADD MSTORE POP JUMP JUMPDEST PUSH32 0x4F776E61626C653A206E6577206F776E657220697320746865207A65726F2061 PUSH1 0x0 DUP3 ADD MSTORE PUSH32 0x6464726573730000000000000000000000000000000000000000000000000000 PUSH1 0x20 DUP3 ADD MSTORE POP JUMP JUMPDEST PUSH32 0x4F776E61626C653A2063616C6C6572206973206E6F7420746865206F776E6572 PUSH1 0x0 DUP3 ADD MSTORE POP JUMP JUMPDEST PUSH32 0x596F7520617265206E6F74206F776E65722E0000000000000000000000000000 PUSH1 0x0 DUP3 ADD MSTORE POP JUMP JUMPDEST PUSH32 0x506C65617365207573652073616D6520667261676D656E7420746F20666F7267 PUSH1 0x0 DUP3 ADD MSTORE PUSH32 0x652E000000000000000000000000000000000000000000000000000000000000 PUSH1 0x20 DUP3 ADD MSTORE POP JUMP JUMPDEST PUSH32 0x4C414B52494D413A20596F75722062616C616E636520697320696E7375666669 PUSH1 0x0 DUP3 ADD MSTORE PUSH32 0x6369656E742E0000000000000000000000000000000000000000000000000000 PUSH1 0x20 DUP3 ADD MSTORE POP JUMP JUMPDEST PUSH2 0x2B0B DUP2 PUSH2 0x2703 JUMP JUMPDEST DUP2 EQ PUSH2 0x2B16 JUMPI PUSH1 0x0 DUP1 REVERT JUMPDEST POP JUMP JUMPDEST PUSH2 0x2B22 DUP2 PUSH2 0x2715 JUMP JUMPDEST DUP2 EQ PUSH2 0x2B2D JUMPI PUSH1 0x0 DUP1 REVERT JUMPDEST POP JUMP JUMPDEST PUSH2 0x2B39 DUP2 PUSH2 0x274D JUMP JUMPDEST DUP2 EQ PUSH2 0x2B44 JUMPI PUSH1 0x0 DUP1 REVERT JUMPDEST POP JUMP JUMPDEST PUSH2 0x2B50 DUP2 PUSH2 0x277B JUMP JUMPDEST DUP2 EQ PUSH2 0x2B5B JUMPI PUSH1 0x0 DUP1 REVERT JUMPDEST POP JUMP INVALID LOG2 PUSH5 0x6970667358 0x22 SLT KECCAK256 SLT DUP1 PC 0xE STOP 0xB7 0xE GASPRICE 0xB5 0xD7 0xC3 0xDA BALANCE CALLDATALOAD 0x25 CREATE 0xCF DUP7 DIFFICULTY 0xF8 CALLDATACOPY CODESIZE 0x2A 0xA8 0xD2 CALLDATACOPY 0xEE 0xCF PUSH30 0xD2C86664736F6C6343000807003300000000000000000000000000000000 "
		},
		"gasEstimates": {
			"creation": {
				"codeDepositCost": "2231200",
				"executionCost": "infinite",
				"totalCost": "infinite"
			},
			"external": {
				"battleLabsSuiteForge(uint256[])": "infinite",
				"changeEcioTokenContract(address)": "26986",
				"changeLakrimaTokenContract(address)": "27008",
				"ecioPrice()": "2518",
				"ecioTokenContract()": "2558",
				"getNumberAndMod(uint256,uint16,uint16)": "infinite",
				"lakrimaPrice()": "2497",
				"lakrimaTokenContract()": "2536",
				"nftCoreContract()": "2626",
				"owner()": "2589",
				"randomRateContract()": "2537",
				"randomWorkerContract()": "2624",
				"ratePerFragment()": "2632",
				"renounceOwnership()": "30485",
				"setRatePerFragment(uint16)": "27014",
				"splitPartCode(string)": "infinite",
				"transferFee(address,address,uint256)": "infinite",
				"transferOwnership(address)": "30811",
				"updateEcioPrice(uint256)": "24849",
				"updateLakrimaPrice(uint256)": "24805",
				"updateNFTsContract(address)": "27028",
				"updateRandomRateContract(address)": "27094",
				"updateRandomWorkerContract(address)": "27095"
			},
			"internal": {
				"createPartCode(string memory)": "20",
				"getPartInfo(uint256)": "infinite"
			}
		},
		"methodIdentifiers": {
			"battleLabsSuiteForge(uint256[])": "5c989593",
			"changeEcioTokenContract(address)": "14f75f88",
			"changeLakrimaTokenContract(address)": "1e251f1e",
			"ecioPrice()": "9555bd87",
			"ecioTokenContract()": "c4376923",
			"getNumberAndMod(uint256,uint16,uint16)": "3ed6fa32",
			"lakrimaPrice()": "33ec2258",
			"lakrimaTokenContract()": "b4fee94e",
			"nftCoreContract()": "417df1f1",
			"owner()": "8da5cb5b",
			"randomRateContract()": "8054a35d",
			"randomWorkerContract()": "f65a7c14",
			"ratePerFragment()": "98e59284",
			"renounceOwnership()": "715018a6",
			"setRatePerFragment(uint16)": "814ef95b",
			"splitPartCode(string)": "adffa46d",
			"transferFee(address,address,uint256)": "59d5d02a",
			"transferOwnership(address)": "f2fde38b",
			"updateEcioPrice(uint256)": "6498bd78",
			"updateLakrimaPrice(uint256)": "59dd3083",
			"updateNFTsContract(address)": "c5b1f381",
			"updateRandomRateContract(address)": "ff1f79bc",
			"updateRandomWorkerContract(address)": "76d20bca"
		}
	},
	"abi": [
		{
			"anonymous": false,
			"inputs": [
				{
					"indexed": true,
					"internalType": "address",
					"name": "previousOwner",
					"type": "address"
				},
				{
					"indexed": true,
					"internalType": "address",
					"name": "newOwner",
					"type": "address"
				}
			],
			"name": "OwnershipTransferred",
			"type": "event"
		},
		{
			"inputs": [
				{
					"internalType": "uint256[]",
					"name": "tokenIds",
					"type": "uint256[]"
				}
			],
			"name": "battleLabsSuiteForge",
			"outputs": [
				{
					"internalType": "bool",
					"name": "success",
					"type": "bool"
				}
			],
			"stateMutability": "nonpayable",
			"type": "function"
		},
		{
			"inputs": [
				{
					"internalType": "address",
					"name": "_address",
					"type": "address"
				}
			],
			"name": "changeEcioTokenContract",
			"outputs": [],
			"stateMutability": "nonpayable",
			"type": "function"
		},
		{
			"inputs": [
				{
					"internalType": "address",
					"name": "_address",
					"type": "address"
				}
			],
			"name": "changeLakrimaTokenContract",
			"outputs": [],
			"stateMutability": "nonpayable",
			"type": "function"
		},
		{
			"inputs": [],
			"name": "ecioPrice",
			"outputs": [
				{
					"internalType": "uint256",
					"name": "",
					"type": "uint256"
				}
			],
			"stateMutability": "view",
			"type": "function"
		},
		{
			"inputs": [],
			"name": "ecioTokenContract",
			"outputs": [
				{
					"internalType": "address",
					"name": "",
					"type": "address"
				}
			],
			"stateMutability": "view",
			"type": "function"
		},
		{
			"inputs": [
				{
					"internalType": "uint256",
					"name": "_ranNum",
					"type": "uint256"
				},
				{
					"internalType": "uint16",
					"name": "digit",
					"type": "uint16"
				},
				{
					"internalType": "uint16",
					"name": "mod",
					"type": "uint16"
				}
			],
			"name": "getNumberAndMod",
			"outputs": [
				{
					"internalType": "uint16",
					"name": "",
					"type": "uint16"
				}
			],
			"stateMutability": "view",
			"type": "function"
		},
		{
			"inputs": [],
			"name": "lakrimaPrice",
			"outputs": [
				{
					"internalType": "uint256",
					"name": "",
					"type": "uint256"
				}
			],
			"stateMutability": "view",
			"type": "function"
		},
		{
			"inputs": [],
			"name": "lakrimaTokenContract",
			"outputs": [
				{
					"internalType": "address",
					"name": "",
					"type": "address"
				}
			],
			"stateMutability": "view",
			"type": "function"
		},
		{
			"inputs": [],
			"name": "nftCoreContract",
			"outputs": [
				{
					"internalType": "address",
					"name": "",
					"type": "address"
				}
			],
			"stateMutability": "view",
			"type": "function"
		},
		{
			"inputs": [],
			"name": "owner",
			"outputs": [
				{
					"internalType": "address",
					"name": "",
					"type": "address"
				}
			],
			"stateMutability": "view",
			"type": "function"
		},
		{
			"inputs": [],
			"name": "randomRateContract",
			"outputs": [
				{
					"internalType": "address",
					"name": "",
					"type": "address"
				}
			],
			"stateMutability": "view",
			"type": "function"
		},
		{
			"inputs": [],
			"name": "randomWorkerContract",
			"outputs": [
				{
					"internalType": "address",
					"name": "",
					"type": "address"
				}
			],
			"stateMutability": "view",
			"type": "function"
		},
		{
			"inputs": [],
			"name": "ratePerFragment",
			"outputs": [
				{
					"internalType": "uint16",
					"name": "",
					"type": "uint16"
				}
			],
			"stateMutability": "view",
			"type": "function"
		},
		{
			"inputs": [],
			"name": "renounceOwnership",
			"outputs": [],
			"stateMutability": "nonpayable",
			"type": "function"
		},
		{
			"inputs": [
				{
					"internalType": "uint16",
					"name": "rate",
					"type": "uint16"
				}
			],
			"name": "setRatePerFragment",
			"outputs": [],
			"stateMutability": "nonpayable",
			"type": "function"
		},
		{
			"inputs": [
				{
					"internalType": "string",
					"name": "partCode",
					"type": "string"
				}
			],
			"name": "splitPartCode",
			"outputs": [
				{
					"internalType": "string[]",
					"name": "",
					"type": "string[]"
				}
			],
			"stateMutability": "pure",
			"type": "function"
		},
		{
			"inputs": [
				{
					"internalType": "address",
					"name": "_contractAddress",
					"type": "address"
				},
				{
					"internalType": "address",
					"name": "_to",
					"type": "address"
				},
				{
					"internalType": "uint256",
					"name": "_amount",
					"type": "uint256"
				}
			],
			"name": "transferFee",
			"outputs": [],
			"stateMutability": "nonpayable",
			"type": "function"
		},
		{
			"inputs": [
				{
					"internalType": "address",
					"name": "newOwner",
					"type": "address"
				}
			],
			"name": "transferOwnership",
			"outputs": [],
			"stateMutability": "nonpayable",
			"type": "function"
		},
		{
			"inputs": [
				{
					"internalType": "uint256",
					"name": "price",
					"type": "uint256"
				}
			],
			"name": "updateEcioPrice",
			"outputs": [],
			"stateMutability": "nonpayable",
			"type": "function"
		},
		{
			"inputs": [
				{
					"internalType": "uint256",
					"name": "price",
					"type": "uint256"
				}
			],
			"name": "updateLakrimaPrice",
			"outputs": [],
			"stateMutability": "nonpayable",
			"type": "function"
		},
		{
			"inputs": [
				{
					"internalType": "address",
					"name": "_address",
					"type": "address"
				}
			],
			"name": "updateNFTsContract",
			"outputs": [],
			"stateMutability": "nonpayable",
			"type": "function"
		},
		{
			"inputs": [
				{
					"internalType": "address",
					"name": "_address",
					"type": "address"
				}
			],
			"name": "updateRandomRateContract",
			"outputs": [],
			"stateMutability": "nonpayable",
			"type": "function"
		},
		{
			"inputs": [
				{
					"internalType": "address",
					"name": "_address",
					"type": "address"
				}
			],
			"name": "updateRandomWorkerContract",
			"outputs": [],
			"stateMutability": "nonpayable",
			"type": "function"
		}
	]
}